{
  "contractName": "MintNft",
  "abi": [
    {
      "inputs": [],
      "stateMutability": "nonpayable",
      "type": "constructor"
    },
    {
      "anonymous": false,
      "inputs": [
        {
          "indexed": true,
          "internalType": "address",
          "name": "owner",
          "type": "address"
        },
        {
          "indexed": true,
          "internalType": "address",
          "name": "approved",
          "type": "address"
        },
        {
          "indexed": true,
          "internalType": "uint256",
          "name": "tokenId",
          "type": "uint256"
        }
      ],
      "name": "Approval",
      "type": "event"
    },
    {
      "anonymous": false,
      "inputs": [
        {
          "indexed": true,
          "internalType": "address",
          "name": "owner",
          "type": "address"
        },
        {
          "indexed": true,
          "internalType": "address",
          "name": "operator",
          "type": "address"
        },
        {
          "indexed": false,
          "internalType": "bool",
          "name": "approved",
          "type": "bool"
        }
      ],
      "name": "ApprovalForAll",
      "type": "event"
    },
    {
      "anonymous": false,
      "inputs": [
        {
          "indexed": true,
          "internalType": "address",
          "name": "from",
          "type": "address"
        },
        {
          "indexed": true,
          "internalType": "address",
          "name": "to",
          "type": "address"
        },
        {
          "indexed": true,
          "internalType": "uint256",
          "name": "tokenId",
          "type": "uint256"
        }
      ],
      "name": "Transfer",
      "type": "event"
    },
    {
      "inputs": [
        {
          "internalType": "uint256",
          "name": "",
          "type": "uint256"
        }
      ],
      "name": "AllNfts",
      "outputs": [
        {
          "internalType": "uint16",
          "name": "level",
          "type": "uint16"
        },
        {
          "internalType": "uint16",
          "name": "count",
          "type": "uint16"
        },
        {
          "internalType": "uint256",
          "name": "amount",
          "type": "uint256"
        },
        {
          "internalType": "uint256",
          "name": "tokenId",
          "type": "uint256"
        },
        {
          "internalType": "string",
          "name": "metaData",
          "type": "string"
        }
      ],
      "stateMutability": "view",
      "type": "function",
      "constant": true
    },
    {
      "inputs": [],
      "name": "BUSD",
      "outputs": [
        {
          "internalType": "address",
          "name": "",
          "type": "address"
        }
      ],
      "stateMutability": "view",
      "type": "function",
      "constant": true
    },
    {
      "inputs": [],
      "name": "ChainLinkPriceFeed",
      "outputs": [
        {
          "internalType": "address",
          "name": "",
          "type": "address"
        }
      ],
      "stateMutability": "view",
      "type": "function",
      "constant": true
    },
    {
      "inputs": [],
      "name": "_tokenIds",
      "outputs": [
        {
          "internalType": "uint256",
          "name": "",
          "type": "uint256"
        }
      ],
      "stateMutability": "view",
      "type": "function",
      "constant": true
    },
    {
      "inputs": [
        {
          "internalType": "uint16",
          "name": "howMany",
          "type": "uint16"
        },
        {
          "internalType": "uint8",
          "name": "_plus",
          "type": "uint8"
        },
        {
          "internalType": "uint16",
          "name": "_level",
          "type": "uint16"
        },
        {
          "internalType": "uint16",
          "name": "_count",
          "type": "uint16"
        },
        {
          "internalType": "uint256",
          "name": "_amount",
          "type": "uint256"
        },
        {
          "internalType": "string[]",
          "name": "_metaDatas",
          "type": "string[]"
        }
      ],
      "name": "addNfts",
      "outputs": [],
      "stateMutability": "nonpayable",
      "type": "function"
    },
    {
      "inputs": [
        {
          "internalType": "uint16",
          "name": "_level",
          "type": "uint16"
        },
        {
          "internalType": "uint16",
          "name": "_count",
          "type": "uint16"
        },
        {
          "internalType": "uint256",
          "name": "_amount",
          "type": "uint256"
        },
        {
          "internalType": "string",
          "name": "_metaData",
          "type": "string"
        }
      ],
      "name": "addOneNft",
      "outputs": [],
      "stateMutability": "nonpayable",
      "type": "function"
    },
    {
      "inputs": [
        {
          "internalType": "address",
          "name": "to",
          "type": "address"
        },
        {
          "internalType": "uint256",
          "name": "tokenId",
          "type": "uint256"
        }
      ],
      "name": "approve",
      "outputs": [],
      "stateMutability": "nonpayable",
      "type": "function"
    },
    {
      "inputs": [
        {
          "internalType": "address",
          "name": "owner",
          "type": "address"
        }
      ],
      "name": "balanceOf",
      "outputs": [
        {
          "internalType": "uint256",
          "name": "",
          "type": "uint256"
        }
      ],
      "stateMutability": "view",
      "type": "function",
      "constant": true
    },
    {
      "inputs": [
        {
          "internalType": "address",
          "name": "_newOwner",
          "type": "address"
        }
      ],
      "name": "changeOwner",
      "outputs": [],
      "stateMutability": "nonpayable",
      "type": "function"
    },
    {
      "inputs": [
        {
          "internalType": "bool",
          "name": "_increase",
          "type": "bool"
        },
        {
          "internalType": "uint16",
          "name": "_planetTokenId",
          "type": "uint16"
        },
        {
          "internalType": "uint8",
          "name": "_percent",
          "type": "uint8"
        }
      ],
      "name": "changePlanetPrice",
      "outputs": [],
      "stateMutability": "nonpayable",
      "type": "function"
    },
    {
      "inputs": [
        {
          "internalType": "bool",
          "name": "_increase",
          "type": "bool"
        },
        {
          "internalType": "uint16",
          "name": "_level",
          "type": "uint16"
        },
        {
          "internalType": "uint8",
          "name": "_percent",
          "type": "uint8"
        }
      ],
      "name": "changelandingsPrice",
      "outputs": [],
      "stateMutability": "nonpayable",
      "type": "function"
    },
    {
      "inputs": [
        {
          "internalType": "uint256",
          "name": "tokenId",
          "type": "uint256"
        }
      ],
      "name": "getApproved",
      "outputs": [
        {
          "internalType": "address",
          "name": "",
          "type": "address"
        }
      ],
      "stateMutability": "view",
      "type": "function",
      "constant": true
    },
    {
      "inputs": [
        {
          "internalType": "address",
          "name": "owner",
          "type": "address"
        },
        {
          "internalType": "address",
          "name": "operator",
          "type": "address"
        }
      ],
      "name": "isApprovedForAll",
      "outputs": [
        {
          "internalType": "bool",
          "name": "",
          "type": "bool"
        }
      ],
      "stateMutability": "view",
      "type": "function",
      "constant": true
    },
    {
      "inputs": [],
      "name": "name",
      "outputs": [
        {
          "internalType": "string",
          "name": "",
          "type": "string"
        }
      ],
      "stateMutability": "view",
      "type": "function",
      "constant": true
    },
    {
      "inputs": [],
      "name": "owner",
      "outputs": [
        {
          "internalType": "address",
          "name": "",
          "type": "address"
        }
      ],
      "stateMutability": "view",
      "type": "function",
      "constant": true
    },
    {
      "inputs": [
        {
          "internalType": "uint256",
          "name": "tokenId",
          "type": "uint256"
        }
      ],
      "name": "ownerOf",
      "outputs": [
        {
          "internalType": "address",
          "name": "",
          "type": "address"
        }
      ],
      "stateMutability": "view",
      "type": "function",
      "constant": true
    },
    {
      "inputs": [
        {
          "internalType": "address",
          "name": "from",
          "type": "address"
        },
        {
          "internalType": "address",
          "name": "to",
          "type": "address"
        },
        {
          "internalType": "uint256",
          "name": "tokenId",
          "type": "uint256"
        }
      ],
      "name": "safeTransferFrom",
      "outputs": [],
      "stateMutability": "nonpayable",
      "type": "function"
    },
    {
      "inputs": [
        {
          "internalType": "address",
          "name": "from",
          "type": "address"
        },
        {
          "internalType": "address",
          "name": "to",
          "type": "address"
        },
        {
          "internalType": "uint256",
          "name": "tokenId",
          "type": "uint256"
        },
        {
          "internalType": "bytes",
          "name": "data",
          "type": "bytes"
        }
      ],
      "name": "safeTransferFrom",
      "outputs": [],
      "stateMutability": "nonpayable",
      "type": "function"
    },
    {
      "inputs": [
        {
          "internalType": "address",
          "name": "operator",
          "type": "address"
        },
        {
          "internalType": "bool",
          "name": "approved",
          "type": "bool"
        }
      ],
      "name": "setApprovalForAll",
      "outputs": [],
      "stateMutability": "nonpayable",
      "type": "function"
    },
    {
      "inputs": [],
      "name": "stakeAddress",
      "outputs": [
        {
          "internalType": "address",
          "name": "",
          "type": "address"
        }
      ],
      "stateMutability": "view",
      "type": "function",
      "constant": true
    },
    {
      "inputs": [
        {
          "internalType": "address",
          "name": "from",
          "type": "address"
        },
        {
          "internalType": "address",
          "name": "to",
          "type": "address"
        },
        {
          "internalType": "uint256",
          "name": "tokenId",
          "type": "uint256"
        }
      ],
      "name": "stakeTransferFrom",
      "outputs": [],
      "stateMutability": "nonpayable",
      "type": "function"
    },
    {
      "inputs": [
        {
          "internalType": "bytes4",
          "name": "interfaceId",
          "type": "bytes4"
        }
      ],
      "name": "supportsInterface",
      "outputs": [
        {
          "internalType": "bool",
          "name": "",
          "type": "bool"
        }
      ],
      "stateMutability": "view",
      "type": "function",
      "constant": true
    },
    {
      "inputs": [],
      "name": "symbol",
      "outputs": [
        {
          "internalType": "string",
          "name": "",
          "type": "string"
        }
      ],
      "stateMutability": "view",
      "type": "function",
      "constant": true
    },
    {
      "inputs": [],
      "name": "tokenId",
      "outputs": [
        {
          "internalType": "uint256",
          "name": "",
          "type": "uint256"
        }
      ],
      "stateMutability": "view",
      "type": "function",
      "constant": true
    },
    {
      "inputs": [
        {
          "internalType": "uint256",
          "name": "tokenId",
          "type": "uint256"
        }
      ],
      "name": "tokenURI",
      "outputs": [
        {
          "internalType": "string",
          "name": "",
          "type": "string"
        }
      ],
      "stateMutability": "view",
      "type": "function",
      "constant": true
    },
    {
      "inputs": [
        {
          "internalType": "uint256",
          "name": "",
          "type": "uint256"
        }
      ],
      "name": "transactions",
      "outputs": [
        {
          "internalType": "string",
          "name": "metaData",
          "type": "string"
        },
        {
          "internalType": "address",
          "name": "nftOwner",
          "type": "address"
        },
        {
          "internalType": "bool",
          "name": "didStake",
          "type": "bool"
        },
        {
          "internalType": "uint16",
          "name": "level",
          "type": "uint16"
        },
        {
          "internalType": "uint256",
          "name": "stakedTime",
          "type": "uint256"
        },
        {
          "internalType": "uint256",
          "name": "tokenId",
          "type": "uint256"
        },
        {
          "internalType": "uint256",
          "name": "amount",
          "type": "uint256"
        },
        {
          "internalType": "uint256",
          "name": "nftTokenId",
          "type": "uint256"
        }
      ],
      "stateMutability": "view",
      "type": "function",
      "constant": true
    },
    {
      "inputs": [
        {
          "internalType": "address",
          "name": "from",
          "type": "address"
        },
        {
          "internalType": "address",
          "name": "to",
          "type": "address"
        },
        {
          "internalType": "uint256",
          "name": "tokenId",
          "type": "uint256"
        }
      ],
      "name": "transferFrom",
      "outputs": [],
      "stateMutability": "nonpayable",
      "type": "function"
    },
    {
      "inputs": [
        {
          "internalType": "uint256",
          "name": "_currentTokenId",
          "type": "uint256"
        },
        {
          "internalType": "uint256",
          "name": "_amount",
          "type": "uint256"
        },
        {
          "internalType": "uint8",
          "name": "_type",
          "type": "uint8"
        },
        {
          "internalType": "uint8",
          "name": "_howMany",
          "type": "uint8"
        }
      ],
      "name": "mintNFT",
      "outputs": [
        {
          "internalType": "bool",
          "name": "",
          "type": "bool"
        }
      ],
      "stateMutability": "payable",
      "type": "function",
      "payable": true
    },
    {
      "inputs": [
        {
          "internalType": "uint256",
          "name": "_tokenId",
          "type": "uint256"
        },
        {
          "internalType": "uint8",
          "name": "_howMany",
          "type": "uint8"
        }
      ],
      "name": "toBnbPrice",
      "outputs": [
        {
          "internalType": "uint256",
          "name": "",
          "type": "uint256"
        }
      ],
      "stateMutability": "view",
      "type": "function",
      "constant": true
    },
    {
      "inputs": [
        {
          "internalType": "uint256",
          "name": "_tokenId",
          "type": "uint256"
        },
        {
          "internalType": "string",
          "name": "_tokenURI",
          "type": "string"
        }
      ],
      "name": "updateTokenURI",
      "outputs": [],
      "stateMutability": "nonpayable",
      "type": "function"
    },
    {
      "inputs": [
        {
          "internalType": "bool",
          "name": "_change",
          "type": "bool"
        }
      ],
      "name": "changeTransferLock",
      "outputs": [],
      "stateMutability": "nonpayable",
      "type": "function"
    },
    {
      "inputs": [
        {
          "internalType": "address",
          "name": "_stakeAddress",
          "type": "address"
        }
      ],
      "name": "setStakeAddress",
      "outputs": [],
      "stateMutability": "nonpayable",
      "type": "function"
    },
    {
      "inputs": [
        {
          "internalType": "uint256",
          "name": "_tokenId",
          "type": "uint256"
        },
        {
          "internalType": "uint256",
          "name": "_endTime",
          "type": "uint256"
        }
      ],
      "name": "stake",
      "outputs": [],
      "stateMutability": "nonpayable",
      "type": "function"
    },
    {
      "inputs": [
        {
          "internalType": "uint256",
          "name": "_tokenId",
          "type": "uint256"
        }
      ],
      "name": "unStake",
      "outputs": [],
      "stateMutability": "nonpayable",
      "type": "function"
    },
    {
      "inputs": [],
      "name": "totalSupply",
      "outputs": [
        {
          "internalType": "uint256",
          "name": "",
          "type": "uint256"
        }
      ],
      "stateMutability": "pure",
      "type": "function",
      "constant": true
    },
    {
      "inputs": [
        {
          "internalType": "uint256",
          "name": "_tokenid",
          "type": "uint256"
        }
      ],
      "name": "getNFT",
      "outputs": [
        {
          "components": [
            {
              "internalType": "uint16",
              "name": "level",
              "type": "uint16"
            },
            {
              "internalType": "uint16",
              "name": "count",
              "type": "uint16"
            },
            {
              "internalType": "uint256",
              "name": "amount",
              "type": "uint256"
            },
            {
              "internalType": "uint256",
              "name": "tokenId",
              "type": "uint256"
            },
            {
              "internalType": "string",
              "name": "metaData",
              "type": "string"
            }
          ],
          "internalType": "struct Owner.EachNFT",
          "name": "",
          "type": "tuple"
        }
      ],
      "stateMutability": "view",
      "type": "function",
      "constant": true
    },
    {
      "inputs": [
        {
          "internalType": "uint256",
          "name": "_tokenid",
          "type": "uint256"
        }
      ],
      "name": "getTransaction",
      "outputs": [
        {
          "components": [
            {
              "internalType": "string",
              "name": "metaData",
              "type": "string"
            },
            {
              "internalType": "address",
              "name": "nftOwner",
              "type": "address"
            },
            {
              "internalType": "bool",
              "name": "didStake",
              "type": "bool"
            },
            {
              "internalType": "uint16",
              "name": "level",
              "type": "uint16"
            },
            {
              "internalType": "uint256",
              "name": "stakedTime",
              "type": "uint256"
            },
            {
              "internalType": "uint256",
              "name": "tokenId",
              "type": "uint256"
            },
            {
              "internalType": "uint256",
              "name": "amount",
              "type": "uint256"
            },
            {
              "internalType": "uint256",
              "name": "nftTokenId",
              "type": "uint256"
            }
          ],
          "internalType": "struct Owner.Transaction",
          "name": "",
          "type": "tuple"
        }
      ],
      "stateMutability": "view",
      "type": "function",
      "constant": true
    }
  ],
  "bytecode": "0x60806040523480156200001157600080fd5b506040518060400160405280600881526020017f53706163655369780000000000000000000000000000000000000000000000008152506040518060400160405280600381526020017f5343580000000000000000000000000000000000000000000000000000000000815250336000806101000a81548173ffffffffffffffffffffffffffffffffffffffff021916908373ffffffffffffffffffffffffffffffffffffffff160217905550600180819055508160049081620000d6919062000466565b508060059081620000e8919062000466565b5050506001600c81905550336000806101000a81548173ffffffffffffffffffffffffffffffffffffffff021916908373ffffffffffffffffffffffffffffffffffffffff16021790555061270f600f8190555073c1ad2f3f1615c54953ad45137fef890556f13628600d60006101000a81548173ffffffffffffffffffffffffffffffffffffffff021916908373ffffffffffffffffffffffffffffffffffffffff16021790555073d6d72bb020e10f5db34c6a33f77596c0c5f0e702600e60006101000a81548173ffffffffffffffffffffffffffffffffffffffff021916908373ffffffffffffffffffffffffffffffffffffffff1602179055506200054d565b600081519050919050565b7f4e487b7100000000000000000000000000000000000000000000000000000000600052604160045260246000fd5b7f4e487b7100000000000000000000000000000000000000000000000000000000600052602260045260246000fd5b600060028204905060018216806200026e57607f821691505b60208210810362000284576200028362000226565b5b50919050565b60008190508160005260206000209050919050565b60006020601f8301049050919050565b600082821b905092915050565b600060088302620002ee7fffffffffffffffffffffffffffffffffffffffffffffffffffffffffffffffff82620002af565b620002fa8683620002af565b95508019841693508086168417925050509392505050565b6000819050919050565b6000819050919050565b600062000347620003416200033b8462000312565b6200031c565b62000312565b9050919050565b6000819050919050565b620003638362000326565b6200037b62000372826200034e565b848454620002bc565b825550505050565b600090565b6200039262000383565b6200039f81848462000358565b505050565b5b81811015620003c757620003bb60008262000388565b600181019050620003a5565b5050565b601f8211156200041657620003e0816200028a565b620003eb846200029f565b81016020851015620003fb578190505b620004136200040a856200029f565b830182620003a4565b50505b505050565b600082821c905092915050565b60006200043b600019846008026200041b565b1980831691505092915050565b600062000456838362000428565b9150826002028217905092915050565b6200047182620001ec565b67ffffffffffffffff8111156200048d576200048c620001f7565b5b62000499825462000255565b620004a6828285620003cb565b600060209050601f831160018114620004de5760008415620004c9578287015190505b620004d5858262000448565b86555062000545565b601f198416620004ee866200028a565b60005b828110156200051857848901518255600182019150602085019450602081019050620004f1565b8683101562000538578489015162000534601f89168262000428565b8355505b6001600288020188555050505b505050505050565b615ed0806200055d6000396000f3fe60806040526004361061021a5760003560e01c806369dadda711610123578063a6f9dae1116100ab578063cde11c7f1161006f578063cde11c7f14610810578063ddfc4f8b14610840578063df2ca78914610869578063e2ebe47c14610892578063e985e9c5146108cf5761021a565b8063a6f9dae11461072d578063aa46a40014610756578063b88d4fde14610781578063c14e6cd0146107aa578063c87b56dd146107d35761021a565b80638bafd935116100f25780638bafd935146106415780638da5cb5b1461066a57806395d89b41146106955780639ace38c2146106c0578063a22cb465146107045761021a565b806369dadda71461058757806370a08231146105b05780637b0472f0146105ed57806385107367146106165761021a565b806333ea3dc8116101a657806342842e0e1161017557806342842e0e14610490578063484f4ea9146104b9578063576f7ea7146104e45780635d3eea91146105215780636352211e1461054a5761021a565b806333ea3dc8146103be5780633f1f792c146103fb578063406586b91461042657806340f48be4146104675761021a565b806317d70f7c116101ed57806317d70f7c146102ed57806318160ddd1461031857806318e97fd11461034357806323471d181461036c57806323b872dd146103955761021a565b806301ffc9a71461021f57806306fdde031461025c578063081812fc14610287578063095ea7b3146102c4575b600080fd5b34801561022b57600080fd5b5061024660048036038101906102419190613cba565b61090c565b6040516102539190613d02565b60405180910390f35b34801561026857600080fd5b506102716109ee565b60405161027e9190613dad565b60405180910390f35b34801561029357600080fd5b506102ae60048036038101906102a99190613e05565b610a80565b6040516102bb9190613e73565b60405180910390f35b3480156102d057600080fd5b506102eb60048036038101906102e69190613eba565b610ac6565b005b3480156102f957600080fd5b50610302610bdd565b60405161030f9190613f09565b60405180910390f35b34801561032457600080fd5b5061032d610be3565b60405161033a9190613f09565b60405180910390f35b34801561034f57600080fd5b5061036a60048036038101906103659190614059565b610bed565b005b34801561037857600080fd5b50610393600480360381019061038e91906140b5565b610c89565b005b3480156103a157600080fd5b506103bc60048036038101906103b791906140e2565b610db6565b005b3480156103ca57600080fd5b506103e560048036038101906103e09190613e05565b610ec7565b6040516103f29190614279565b60405180910390f35b34801561040757600080fd5b50610410611040565b60405161041d9190613e73565b60405180910390f35b34801561043257600080fd5b5061044d60048036038101906104489190613e05565b611066565b60405161045e9594939291906142aa565b60405180910390f35b34801561047357600080fd5b5061048e60048036038101906104899190614395565b611140565b005b34801561049c57600080fd5b506104b760048036038101906104b291906140e2565b61126e565b005b3480156104c557600080fd5b506104ce61133f565b6040516104db9190613e73565b60405180910390f35b3480156104f057600080fd5b5061050b60048036038101906105069190613e05565b611365565b604051610518919061445e565b60405180910390f35b34801561052d57600080fd5b5061054860048036038101906105439190613e05565b611478565b005b34801561055657600080fd5b50610571600480360381019061056c9190613e05565b61154a565b60405161057e9190613e73565b60405180910390f35b34801561059357600080fd5b506105ae60048036038101906105a991906144e0565b6115fb565b005b3480156105bc57600080fd5b506105d760048036038101906105d291906140b5565b6116fc565b6040516105e49190613f09565b60405180910390f35b3480156105f957600080fd5b50610614600480360381019061060f919061458f565b6117b3565b005b34801561062257600080fd5b5061062b611892565b6040516106389190613e73565b60405180910390f35b34801561064d57600080fd5b50610668600480360381019061066391906140e2565b6118b8565b005b34801561067657600080fd5b5061067f6119a8565b60405161068c9190613e73565b60405180910390f35b3480156106a157600080fd5b506106aa6119cc565b6040516106b79190613dad565b60405180910390f35b3480156106cc57600080fd5b506106e760048036038101906106e29190613e05565b611a5e565b6040516106fb9897969594939291906145cf565b60405180910390f35b34801561071057600080fd5b5061072b60048036038101906107269190614654565b611b69565b005b34801561073957600080fd5b50610754600480360381019061074f91906140b5565b611b7f565b005b34801561076257600080fd5b5061076b611c50565b6040516107789190613f09565b60405180910390f35b34801561078d57600080fd5b506107a860048036038101906107a39190614735565b611c56565b005b3480156107b657600080fd5b506107d160048036038101906107cc91906147b8565b611d69565b005b3480156107df57600080fd5b506107fa60048036038101906107f59190613e05565b611e14565b6040516108079190613dad565b60405180910390f35b61082a600480360381019061082591906147e5565b611f26565b6040516108379190613d02565b60405180910390f35b34801561084c57600080fd5b50610867600480360381019061086291906148a2565b612741565b005b34801561087557600080fd5b50610890600480360381019061088b9190614395565b612905565b005b34801561089e57600080fd5b506108b960048036038101906108b4919061492a565b612a71565b6040516108c69190613f09565b60405180910390f35b3480156108db57600080fd5b506108f660048036038101906108f1919061496a565b612b9c565b6040516109039190613d02565b60405180910390f35b60007f80ac58cd000000000000000000000000000000000000000000000000000000007bffffffffffffffffffffffffffffffffffffffffffffffffffffffff1916827bffffffffffffffffffffffffffffffffffffffffffffffffffffffff191614806109d757507f5b5e139f000000000000000000000000000000000000000000000000000000007bffffffffffffffffffffffffffffffffffffffffffffffffffffffff1916827bffffffffffffffffffffffffffffffffffffffffffffffffffffffff1916145b806109e757506109e682612c30565b5b9050919050565b6060600480546109fd906149d9565b80601f0160208091040260200160405190810160405280929190818152602001828054610a29906149d9565b8015610a765780601f10610a4b57610100808354040283529160200191610a76565b820191906000526020600020905b815481529060010190602001808311610a5957829003601f168201915b5050505050905090565b6000610a8b82612c9a565b6009600083815260200190815260200160002060009054906101000a900473ffffffffffffffffffffffffffffffffffffffff169050919050565b6000610ad18261154a565b90508073ffffffffffffffffffffffffffffffffffffffff168373ffffffffffffffffffffffffffffffffffffffff1603610b41576040517f08c379a0000000000000000000000000000000000000000000000000000000008152600401610b3890614a7c565b60405180910390fd5b8073ffffffffffffffffffffffffffffffffffffffff16610b60612ce5565b73ffffffffffffffffffffffffffffffffffffffff161480610b8f5750610b8e81610b89612ce5565b612b9c565b5b610bce576040517f08c379a0000000000000000000000000000000000000000000000000000000008152600401610bc590614b0e565b60405180910390fd5b610bd88383612ced565b505050565b60015481565b6000611f40905090565b60008054906101000a900473ffffffffffffffffffffffffffffffffffffffff1673ffffffffffffffffffffffffffffffffffffffff163373ffffffffffffffffffffffffffffffffffffffff1614610c7b576040517f08c379a0000000000000000000000000000000000000000000000000000000008152600401610c7290614ba0565b60405180910390fd5b610c858282612da6565b5050565b60008054906101000a900473ffffffffffffffffffffffffffffffffffffffff1673ffffffffffffffffffffffffffffffffffffffff163373ffffffffffffffffffffffffffffffffffffffff1614610d17576040517f08c379a0000000000000000000000000000000000000000000000000000000008152600401610d0e90614ba0565b60405180910390fd5b600073ffffffffffffffffffffffffffffffffffffffff16600660019054906101000a900473ffffffffffffffffffffffffffffffffffffffff1673ffffffffffffffffffffffffffffffffffffffff1614610d7257600080fd5b80600660016101000a81548173ffffffffffffffffffffffffffffffffffffffff021916908373ffffffffffffffffffffffffffffffffffffffff16021790555050565b60001515600660009054906101000a900460ff16151514610e0c576040517f08c379a0000000000000000000000000000000000000000000000000000000008152600401610e0390614c0c565b60405180910390fd5b610e1d610e17612ce5565b82612dcb565b610e5c576040517f08c379a0000000000000000000000000000000000000000000000000000000008152600401610e5390614c9e565b60405180910390fd5b6000600360008381526020019081526020016000209050828160010160006101000a81548173ffffffffffffffffffffffffffffffffffffffff021916908373ffffffffffffffffffffffffffffffffffffffff160217905550610ec1848484612e60565b50505050565b610ecf613bb6565b6003600083815260200190815260200160002060405180610100016040529081600082018054610efe906149d9565b80601f0160208091040260200160405190810160405280929190818152602001828054610f2a906149d9565b8015610f775780601f10610f4c57610100808354040283529160200191610f77565b820191906000526020600020905b815481529060010190602001808311610f5a57829003601f168201915b505050505081526020016001820160009054906101000a900473ffffffffffffffffffffffffffffffffffffffff1673ffffffffffffffffffffffffffffffffffffffff1673ffffffffffffffffffffffffffffffffffffffff1681526020016001820160149054906101000a900460ff161515151581526020016001820160159054906101000a900461ffff1661ffff1661ffff1681526020016002820154815260200160038201548152602001600482015481526020016005820154815250509050919050565b600e60009054906101000a900473ffffffffffffffffffffffffffffffffffffffff1681565b60026020528060005260406000206000915090508060000160009054906101000a900461ffff16908060000160029054906101000a900461ffff16908060010154908060020154908060030180546110bd906149d9565b80601f01602080910402602001604051908101604052809291908181526020018280546110e9906149d9565b80156111365780601f1061110b57610100808354040283529160200191611136565b820191906000526020600020905b81548152906001019060200180831161111957829003601f168201915b5050505050905085565b60008054906101000a900473ffffffffffffffffffffffffffffffffffffffff1673ffffffffffffffffffffffffffffffffffffffff163373ffffffffffffffffffffffffffffffffffffffff16146111ce576040517f08c379a00000000000000000000000000000000000000000000000000000000081526004016111c590614ba0565b60405180910390fd5b6000600260008461ffff168152602001908152602001600020905060008260ff16600260008661ffff168152602001908152602001600020600101546112149190614ced565b90506064816112239190614d5e565b9050600115158515150361124e578082600101546112419190614d8f565b8260010181905550611267565b80826001015461125e9190614dc3565b82600101819055505b5050505050565b60001515600660009054906101000a900460ff161515146112c4576040517f08c379a00000000000000000000000000000000000000000000000000000000081526004016112bb90614c0c565b60405180910390fd5b6000600360008381526020019081526020016000209050828160010160006101000a81548173ffffffffffffffffffffffffffffffffffffffff021916908373ffffffffffffffffffffffffffffffffffffffff16021790555061133984848460405180602001604052806000815250611c56565b50505050565b600d60009054906101000a900473ffffffffffffffffffffffffffffffffffffffff1681565b61136d613c17565b600260008381526020019081526020016000206040518060a00160405290816000820160009054906101000a900461ffff1661ffff1661ffff1681526020016000820160029054906101000a900461ffff1661ffff1661ffff16815260200160018201548152602001600282015481526020016003820180546113ef906149d9565b80601f016020809104026020016040519081016040528092919081815260200182805461141b906149d9565b80156114685780601f1061143d57610100808354040283529160200191611468565b820191906000526020600020905b81548152906001019060200180831161144b57829003601f168201915b5050505050815250509050919050565b600660019054906101000a900473ffffffffffffffffffffffffffffffffffffffff1673ffffffffffffffffffffffffffffffffffffffff163373ffffffffffffffffffffffffffffffffffffffff1614611508576040517f08c379a00000000000000000000000000000000000000000000000000000000081526004016114ff90614e43565b60405180910390fd5b600060036000838152602001908152602001600020905060008160010160146101000a81548160ff021916908315150217905550600081600201819055505050565b6000806007600084815260200190815260200160002060009054906101000a900473ffffffffffffffffffffffffffffffffffffffff169050600073ffffffffffffffffffffffffffffffffffffffff168173ffffffffffffffffffffffffffffffffffffffff16036115f2576040517f08c379a00000000000000000000000000000000000000000000000000000000081526004016115e990614eaf565b60405180910390fd5b80915050919050565b60008054906101000a900473ffffffffffffffffffffffffffffffffffffffff1673ffffffffffffffffffffffffffffffffffffffff163373ffffffffffffffffffffffffffffffffffffffff1614611689576040517f08c379a000000000000000000000000000000000000000000000000000000000815260040161168090614ba0565b60405180910390fd5b600083905060005b8861ffff168110156116f1576116cd8787848787868181106116b6576116b5614ecf565b5b90506020028101906116c89190614f0d565b612741565b8760ff16826116dc9190614d8f565b915080806116e990614f70565b915050611691565b505050505050505050565b60008073ffffffffffffffffffffffffffffffffffffffff168273ffffffffffffffffffffffffffffffffffffffff160361176c576040517f08c379a00000000000000000000000000000000000000000000000000000000081526004016117639061502a565b60405180910390fd5b600860008373ffffffffffffffffffffffffffffffffffffffff1673ffffffffffffffffffffffffffffffffffffffff168152602001908152602001600020549050919050565b600660019054906101000a900473ffffffffffffffffffffffffffffffffffffffff1673ffffffffffffffffffffffffffffffffffffffff163373ffffffffffffffffffffffffffffffffffffffff1614611843576040517f08c379a000000000000000000000000000000000000000000000000000000000815260040161183a90614e43565b60405180910390fd5b600060036000848152602001908152602001600020905060018160010160146101000a81548160ff02191690831515021790555061012c426118859190614d8f565b8160020181905550505050565b600660019054906101000a900473ffffffffffffffffffffffffffffffffffffffff1681565b6118c96118c3612ce5565b82612dcb565b611908576040517f08c379a00000000000000000000000000000000000000000000000000000000081526004016118ff90614c9e565b60405180910390fd5b600660019054906101000a900473ffffffffffffffffffffffffffffffffffffffff1673ffffffffffffffffffffffffffffffffffffffff163373ffffffffffffffffffffffffffffffffffffffff1614611998576040517f08c379a000000000000000000000000000000000000000000000000000000000815260040161198f90614e43565b60405180910390fd5b6119a3838383612e60565b505050565b60008054906101000a900473ffffffffffffffffffffffffffffffffffffffff1681565b6060600580546119db906149d9565b80601f0160208091040260200160405190810160405280929190818152602001828054611a07906149d9565b8015611a545780601f10611a2957610100808354040283529160200191611a54565b820191906000526020600020905b815481529060010190602001808311611a3757829003601f168201915b5050505050905090565b6003602052806000526040600020600091509050806000018054611a81906149d9565b80601f0160208091040260200160405190810160405280929190818152602001828054611aad906149d9565b8015611afa5780601f10611acf57610100808354040283529160200191611afa565b820191906000526020600020905b815481529060010190602001808311611add57829003601f168201915b5050505050908060010160009054906101000a900473ffffffffffffffffffffffffffffffffffffffff16908060010160149054906101000a900460ff16908060010160159054906101000a900461ffff16908060020154908060030154908060040154908060050154905088565b611b7b611b74612ce5565b83836130c6565b5050565b60008054906101000a900473ffffffffffffffffffffffffffffffffffffffff1673ffffffffffffffffffffffffffffffffffffffff163373ffffffffffffffffffffffffffffffffffffffff1614611c0d576040517f08c379a0000000000000000000000000000000000000000000000000000000008152600401611c0490614ba0565b60405180910390fd5b806000806101000a81548173ffffffffffffffffffffffffffffffffffffffff021916908373ffffffffffffffffffffffffffffffffffffffff16021790555050565b600f5481565b60001515600660009054906101000a900460ff16151514611cac576040517f08c379a0000000000000000000000000000000000000000000000000000000008152600401611ca390614c0c565b60405180910390fd5b611cbd611cb7612ce5565b83612dcb565b611cfc576040517f08c379a0000000000000000000000000000000000000000000000000000000008152600401611cf390614c9e565b60405180910390fd5b6000600360008481526020019081526020016000209050838160010160006101000a81548173ffffffffffffffffffffffffffffffffffffffff021916908373ffffffffffffffffffffffffffffffffffffffff160217905550611d6285858585613232565b5050505050565b60008054906101000a900473ffffffffffffffffffffffffffffffffffffffff1673ffffffffffffffffffffffffffffffffffffffff163373ffffffffffffffffffffffffffffffffffffffff1614611df7576040517f08c379a0000000000000000000000000000000000000000000000000000000008152600401611dee90614ba0565b60405180910390fd5b80600660006101000a81548160ff02191690831515021790555050565b6060611e1f82612c9a565b6000600b60008481526020019081526020016000208054611e3f906149d9565b80601f0160208091040260200160405190810160405280929190818152602001828054611e6b906149d9565b8015611eb85780601f10611e8d57610100808354040283529160200191611eb8565b820191906000526020600020905b815481529060010190602001808311611e9b57829003601f168201915b505050505090506000611ec961328e565b90506000815103611ede578192505050611f21565b600082511115611f13578082604051602001611efb929190615086565b60405160208183030381529060405292505050611f21565b611f1c846132a5565b925050505b919050565b60006002600c5403611f6d576040517f08c379a0000000000000000000000000000000000000000000000000000000008152600401611f64906150f6565b60405180910390fd5b6002600c81905550836000600d60009054906101000a900473ffffffffffffffffffffffffffffffffffffffff1673ffffffffffffffffffffffffffffffffffffffff166370a08231336040518263ffffffff1660e01b8152600401611fd39190613e73565b602060405180830381865afa158015611ff0573d6000803e3d6000fd5b505050506040513d601f19601f82011682018060405250810190612014919061512b565b9050600082905080821015801561202c575060008114155b61206b576040517f08c379a0000000000000000000000000000000000000000000000000000000008152600401612062906151a4565b60405180910390fd5b60008560ff16600260008b8152602001908152602001600020600101546120929190614ced565b90508088146120d6576040517f08c379a00000000000000000000000000000000000000000000000000000000081526004016120cd90615210565b60405180910390fd5b6000600260008b815260200190815260200160002060000160029054906101000a900461ffff1661ffff1611612141576040517f08c379a00000000000000000000000000000000000000000000000000000000081526004016121389061527c565b60405180910390fd5b8560ff16600260008b815260200190815260200160002060000160029054906101000a900461ffff1661ffff1610156121af576040517f08c379a00000000000000000000000000000000000000000000000000000000081526004016121a6906152e8565b60405180910390fd5b60008760ff160361224d5760008054906101000a900473ffffffffffffffffffffffffffffffffffffffff1673ffffffffffffffffffffffffffffffffffffffff163373ffffffffffffffffffffffffffffffffffffffff1614612248576040517f08c379a000000000000000000000000000000000000000000000000000000000815260040161223f90615354565b60405180910390fd5b6123c6565b60018760ff16036122ab576122a6600d60009054906101000a900473ffffffffffffffffffffffffffffffffffffffff163360008054906101000a900473ffffffffffffffffffffffffffffffffffffffff168461330d565b6123c5565b600073116f0bdbdc03dd620eb7ee7550184d38b9442eaa905060006122d08b89612a71565b905080341015612315576040517f08c379a000000000000000000000000000000000000000000000000000000000815260040161230c906153c0565b60405180910390fd5b60008273ffffffffffffffffffffffffffffffffffffffff163460405161233b90615411565b60006040518083038185875af1925050503d8060008114612378576040519150601f19603f3d011682016040523d82523d6000602084013e61237d565b606091505b50509050806123c1576040517f08c379a00000000000000000000000000000000000000000000000000000000081526004016123b890615472565b60405180910390fd5b5050505b5b6000600260008b815260200190815260200160002090508660ff168160000160028282829054906101000a900461ffff166124019190615492565b92506101000a81548161ffff021916908361ffff1602179055506000600190505b8760ff168111612727576001600f600082825461243f9190614d8f565b9250508190555061245233600f54613396565b6124fc600f54600260008e81526020019081526020016000206003018054612479906149d9565b80601f01602080910402602001604051908101604052809291908181526020018280546124a5906149d9565b80156124f25780601f106124c7576101008083540402835291602001916124f2565b820191906000526020600020905b8154815290600101906020018083116124d557829003601f168201915b505050505061356f565b6000604051806101000160405280600260008f8152602001908152602001600020600301805461252b906149d9565b80601f0160208091040260200160405190810160405280929190818152602001828054612557906149d9565b80156125a45780601f10612579576101008083540402835291602001916125a4565b820191906000526020600020905b81548152906001019060200180831161258757829003601f168201915b505050505081526020013373ffffffffffffffffffffffffffffffffffffffff168152602001600015158152602001600260008f815260200190815260200160002060000160009054906101000a900461ffff1661ffff16815260200160008152602001600f548152602001858152602001600260008f81526020019081526020016000206002015481525090508060036000600f548152602001908152602001600020600082015181600001908161265d9190615674565b5060208201518160010160006101000a81548173ffffffffffffffffffffffffffffffffffffffff021916908373ffffffffffffffffffffffffffffffffffffffff16021790555060408201518160010160146101000a81548160ff02191690831515021790555060608201518160010160156101000a81548161ffff021916908361ffff1602179055506080820151816002015560a0820151816003015560c0820151816004015560e0820151816005015590505050808061271f90614f70565b915050612422565b506001955050505050506001600c81905550949350505050565b60008054906101000a900473ffffffffffffffffffffffffffffffffffffffff1673ffffffffffffffffffffffffffffffffffffffff163373ffffffffffffffffffffffffffffffffffffffff16146127cf576040517f08c379a00000000000000000000000000000000000000000000000000000000081526004016127c690614ba0565b60405180910390fd5b6000670de0b6b3a7640000846127e59190614ced565b90506040518060a001604052808761ffff1681526020018661ffff168152602001828152602001600154815260200184848080601f016020809104026020016040519081016040528093929190818152602001838380828437600081840152601f19601f8201169050808301925050505050505081525060026000600154815260200190815260200160002060008201518160000160006101000a81548161ffff021916908361ffff16021790555060208201518160000160026101000a81548161ffff021916908361ffff160217905550604082015181600101556060820151816002015560808201518160030190816128e09190615674565b5090505060018060008282546128f69190614d8f565b92505081905550505050505050565b60008054906101000a900473ffffffffffffffffffffffffffffffffffffffff1673ffffffffffffffffffffffffffffffffffffffff163373ffffffffffffffffffffffffffffffffffffffff1614612993576040517f08c379a000000000000000000000000000000000000000000000000000000000815260040161298a90614ba0565b60405180910390fd5b6000600190505b6001548111612a6b5760006002600083815260200190815260200160002090508361ffff168160000160009054906101000a900461ffff1661ffff1603612a575760008360ff166002600085815260200190815260200160002060010154612a029190614ced565b9050606481612a119190614d5e565b90506001151586151503612a3c57808260010154612a2f9190614d8f565b8260010181905550612a55565b808260010154612a4c9190614dc3565b82600101819055505b505b508080612a6390614f70565b91505061299a565b50505050565b600080600e60009054906101000a900473ffffffffffffffffffffffffffffffffffffffff1673ffffffffffffffffffffffffffffffffffffffff16638e15f4736040518163ffffffff1660e01b8152600401602060405180830381865afa158015612ae1573d6000803e3d6000fd5b505050506040513d601f19601f82011682018060405250810190612b05919061577c565b90506000670de0b6b3a76400006002600087815260200190815260200160002060010154612b339190614ced565b90508360ff1681612b449190614ced565b90506402540be40082612b579190614ced565b91508181612b659190614d5e565b905066038d7ea4c6800081612b7a9190614d5e565b905066038d7ea4c6800081612b8f9190614ced565b9050809250505092915050565b6000600a60008473ffffffffffffffffffffffffffffffffffffffff1673ffffffffffffffffffffffffffffffffffffffff16815260200190815260200160002060008373ffffffffffffffffffffffffffffffffffffffff1673ffffffffffffffffffffffffffffffffffffffff16815260200190815260200160002060009054906101000a900460ff16905092915050565b60007f01ffc9a7000000000000000000000000000000000000000000000000000000007bffffffffffffffffffffffffffffffffffffffffffffffffffffffff1916827bffffffffffffffffffffffffffffffffffffffffffffffffffffffff1916149050919050565b612ca3816135dc565b612ce2576040517f08c379a0000000000000000000000000000000000000000000000000000000008152600401612cd990614eaf565b60405180910390fd5b50565b600033905090565b816009600083815260200190815260200160002060006101000a81548173ffffffffffffffffffffffffffffffffffffffff021916908373ffffffffffffffffffffffffffffffffffffffff160217905550808273ffffffffffffffffffffffffffffffffffffffff16612d608361154a565b73ffffffffffffffffffffffffffffffffffffffff167f8c5be1e5ebec7d5bd14f71427d1e84f3dd0314c0f7b2291e5b200ac8c7c3b92560405160405180910390a45050565b80600b60008481526020019081526020016000209081612dc69190615674565b505050565b600080612dd78361154a565b90508073ffffffffffffffffffffffffffffffffffffffff168473ffffffffffffffffffffffffffffffffffffffff161480612e195750612e188185612b9c565b5b80612e5757508373ffffffffffffffffffffffffffffffffffffffff16612e3f84610a80565b73ffffffffffffffffffffffffffffffffffffffff16145b91505092915050565b8273ffffffffffffffffffffffffffffffffffffffff16612e808261154a565b73ffffffffffffffffffffffffffffffffffffffff1614612ed6576040517f08c379a0000000000000000000000000000000000000000000000000000000008152600401612ecd9061581b565b60405180910390fd5b600073ffffffffffffffffffffffffffffffffffffffff168273ffffffffffffffffffffffffffffffffffffffff1603612f45576040517f08c379a0000000000000000000000000000000000000000000000000000000008152600401612f3c906158ad565b60405180910390fd5b612f50838383613648565b612f5b600082612ced565b6001600860008573ffffffffffffffffffffffffffffffffffffffff1673ffffffffffffffffffffffffffffffffffffffff1681526020019081526020016000206000828254612fab9190614dc3565b925050819055506001600860008473ffffffffffffffffffffffffffffffffffffffff1673ffffffffffffffffffffffffffffffffffffffff16815260200190815260200160002060008282546130029190614d8f565b92505081905550816007600083815260200190815260200160002060006101000a81548173ffffffffffffffffffffffffffffffffffffffff021916908373ffffffffffffffffffffffffffffffffffffffff160217905550808273ffffffffffffffffffffffffffffffffffffffff168473ffffffffffffffffffffffffffffffffffffffff167fddf252ad1be2c89b69c2b068fc378daa952ba7f163c4a11628f55a4df523b3ef60405160405180910390a46130c183838361364d565b505050565b8173ffffffffffffffffffffffffffffffffffffffff168373ffffffffffffffffffffffffffffffffffffffff1603613134576040517f08c379a000000000000000000000000000000000000000000000000000000000815260040161312b90615919565b60405180910390fd5b80600a60008573ffffffffffffffffffffffffffffffffffffffff1673ffffffffffffffffffffffffffffffffffffffff16815260200190815260200160002060008473ffffffffffffffffffffffffffffffffffffffff1673ffffffffffffffffffffffffffffffffffffffff16815260200190815260200160002060006101000a81548160ff0219169083151502179055508173ffffffffffffffffffffffffffffffffffffffff168373ffffffffffffffffffffffffffffffffffffffff167f17307eab39ab6107e8899845ad3d59bd9653f200f220920489ca2b5937696c31836040516132259190613d02565b60405180910390a3505050565b61323d848484612e60565b61324984848484613652565b613288576040517f08c379a000000000000000000000000000000000000000000000000000000000815260040161327f906159ab565b60405180910390fd5b50505050565b606060405180602001604052806000815250905090565b60606132b082612c9a565b60006132ba61328e565b905060008151116132da5760405180602001604052806000815250613305565b806132e4846137d9565b6040516020016132f5929190615086565b6040516020818303038152906040525b915050919050565b613390846323b872dd60e01b85858560405160240161332e939291906159cb565b604051602081830303815290604052907bffffffffffffffffffffffffffffffffffffffffffffffffffffffff19166020820180517bffffffffffffffffffffffffffffffffffffffffffffffffffffffff8381831617835250505050613939565b50505050565b600073ffffffffffffffffffffffffffffffffffffffff168273ffffffffffffffffffffffffffffffffffffffff1603613405576040517f08c379a00000000000000000000000000000000000000000000000000000000081526004016133fc90615a4e565b60405180910390fd5b61340e816135dc565b1561344e576040517f08c379a000000000000000000000000000000000000000000000000000000000815260040161344590615aba565b60405180910390fd5b61345a60008383613648565b6001600860008473ffffffffffffffffffffffffffffffffffffffff1673ffffffffffffffffffffffffffffffffffffffff16815260200190815260200160002060008282546134aa9190614d8f565b92505081905550816007600083815260200190815260200160002060006101000a81548173ffffffffffffffffffffffffffffffffffffffff021916908373ffffffffffffffffffffffffffffffffffffffff160217905550808273ffffffffffffffffffffffffffffffffffffffff16600073ffffffffffffffffffffffffffffffffffffffff167fddf252ad1be2c89b69c2b068fc378daa952ba7f163c4a11628f55a4df523b3ef60405160405180910390a461356b6000838361364d565b5050565b613578826135dc565b6135b7576040517f08c379a00000000000000000000000000000000000000000000000000000000081526004016135ae90615b4c565b60405180910390fd5b80600b600084815260200190815260200160002090816135d79190615674565b505050565b60008073ffffffffffffffffffffffffffffffffffffffff166007600084815260200190815260200160002060009054906101000a900473ffffffffffffffffffffffffffffffffffffffff1673ffffffffffffffffffffffffffffffffffffffff1614159050919050565b505050565b505050565b60006136738473ffffffffffffffffffffffffffffffffffffffff16613a00565b156137cc578373ffffffffffffffffffffffffffffffffffffffff1663150b7a0261369c612ce5565b8786866040518563ffffffff1660e01b81526004016136be9493929190615bc1565b6020604051808303816000875af19250505080156136fa57506040513d601f19601f820116820180604052508101906136f79190615c22565b60015b61377c573d806000811461372a576040519150601f19603f3d011682016040523d82523d6000602084013e61372f565b606091505b506000815103613774576040517f08c379a000000000000000000000000000000000000000000000000000000000815260040161376b906159ab565b60405180910390fd5b805181602001fd5b63150b7a0260e01b7bffffffffffffffffffffffffffffffffffffffffffffffffffffffff1916817bffffffffffffffffffffffffffffffffffffffffffffffffffffffff1916149150506137d1565b600190505b949350505050565b606060008203613820576040518060400160405280600181526020017f30000000000000000000000000000000000000000000000000000000000000008152509050613934565b600082905060005b6000821461385257808061383b90614f70565b915050600a8261384b9190614d5e565b9150613828565b60008167ffffffffffffffff81111561386e5761386d613f2e565b5b6040519080825280601f01601f1916602001820160405280156138a05781602001600182028036833780820191505090505b5090505b6000851461392d576001826138b99190614dc3565b9150600a856138c89190615c4f565b60306138d49190614d8f565b60f81b8183815181106138ea576138e9614ecf565b5b60200101907effffffffffffffffffffffffffffffffffffffffffffffffffffffffffffff1916908160001a905350600a856139269190614d5e565b94506138a4565b8093505050505b919050565b600061399b826040518060400160405280602081526020017f5361666545524332303a206c6f772d6c6576656c2063616c6c206661696c65648152508573ffffffffffffffffffffffffffffffffffffffff16613a239092919063ffffffff16565b90506000815111156139fb57808060200190518101906139bb9190615c95565b6139fa576040517f08c379a00000000000000000000000000000000000000000000000000000000081526004016139f190615d34565b60405180910390fd5b5b505050565b6000808273ffffffffffffffffffffffffffffffffffffffff163b119050919050565b6060613a328484600085613a3b565b90509392505050565b606082471015613a80576040517f08c379a0000000000000000000000000000000000000000000000000000000008152600401613a7790615dc6565b60405180910390fd5b613a8985613a00565b613ac8576040517f08c379a0000000000000000000000000000000000000000000000000000000008152600401613abf90615e32565b60405180910390fd5b6000808673ffffffffffffffffffffffffffffffffffffffff168587604051613af19190615e83565b60006040518083038185875af1925050503d8060008114613b2e576040519150601f19603f3d011682016040523d82523d6000602084013e613b33565b606091505b5091509150613b43828286613b4f565b92505050949350505050565b60608315613b5f57829050613baf565b600083511115613b725782518084602001fd5b816040517f08c379a0000000000000000000000000000000000000000000000000000000008152600401613ba69190613dad565b60405180910390fd5b9392505050565b60405180610100016040528060608152602001600073ffffffffffffffffffffffffffffffffffffffff168152602001600015158152602001600061ffff168152602001600081526020016000815260200160008152602001600081525090565b6040518060a00160405280600061ffff168152602001600061ffff1681526020016000815260200160008152602001606081525090565b6000604051905090565b600080fd5b600080fd5b60007fffffffff0000000000000000000000000000000000000000000000000000000082169050919050565b613c9781613c62565b8114613ca257600080fd5b50565b600081359050613cb481613c8e565b92915050565b600060208284031215613cd057613ccf613c58565b5b6000613cde84828501613ca5565b91505092915050565b60008115159050919050565b613cfc81613ce7565b82525050565b6000602082019050613d176000830184613cf3565b92915050565b600081519050919050565b600082825260208201905092915050565b60005b83811015613d57578082015181840152602081019050613d3c565b60008484015250505050565b6000601f19601f8301169050919050565b6000613d7f82613d1d565b613d898185613d28565b9350613d99818560208601613d39565b613da281613d63565b840191505092915050565b60006020820190508181036000830152613dc78184613d74565b905092915050565b6000819050919050565b613de281613dcf565b8114613ded57600080fd5b50565b600081359050613dff81613dd9565b92915050565b600060208284031215613e1b57613e1a613c58565b5b6000613e2984828501613df0565b91505092915050565b600073ffffffffffffffffffffffffffffffffffffffff82169050919050565b6000613e5d82613e32565b9050919050565b613e6d81613e52565b82525050565b6000602082019050613e886000830184613e64565b92915050565b613e9781613e52565b8114613ea257600080fd5b50565b600081359050613eb481613e8e565b92915050565b60008060408385031215613ed157613ed0613c58565b5b6000613edf85828601613ea5565b9250506020613ef085828601613df0565b9150509250929050565b613f0381613dcf565b82525050565b6000602082019050613f1e6000830184613efa565b92915050565b600080fd5b600080fd5b7f4e487b7100000000000000000000000000000000000000000000000000000000600052604160045260246000fd5b613f6682613d63565b810181811067ffffffffffffffff82111715613f8557613f84613f2e565b5b80604052505050565b6000613f98613c4e565b9050613fa48282613f5d565b919050565b600067ffffffffffffffff821115613fc457613fc3613f2e565b5b613fcd82613d63565b9050602081019050919050565b82818337600083830152505050565b6000613ffc613ff784613fa9565b613f8e565b90508281526020810184848401111561401857614017613f29565b5b614023848285613fda565b509392505050565b600082601f8301126140405761403f613f24565b5b8135614050848260208601613fe9565b91505092915050565b600080604083850312156140705761406f613c58565b5b600061407e85828601613df0565b925050602083013567ffffffffffffffff81111561409f5761409e613c5d565b5b6140ab8582860161402b565b9150509250929050565b6000602082840312156140cb576140ca613c58565b5b60006140d984828501613ea5565b91505092915050565b6000806000606084860312156140fb576140fa613c58565b5b600061410986828701613ea5565b935050602061411a86828701613ea5565b925050604061412b86828701613df0565b9150509250925092565b600082825260208201905092915050565b600061415182613d1d565b61415b8185614135565b935061416b818560208601613d39565b61417481613d63565b840191505092915050565b61418881613e52565b82525050565b61419781613ce7565b82525050565b600061ffff82169050919050565b6141b48161419d565b82525050565b6141c381613dcf565b82525050565b60006101008301600083015184820360008601526141e78282614146565b91505060208301516141fc602086018261417f565b50604083015161420f604086018261418e565b50606083015161422260608601826141ab565b50608083015161423560808601826141ba565b5060a083015161424860a08601826141ba565b5060c083015161425b60c08601826141ba565b5060e083015161426e60e08601826141ba565b508091505092915050565b6000602082019050818103600083015261429381846141c9565b905092915050565b6142a48161419d565b82525050565b600060a0820190506142bf600083018861429b565b6142cc602083018761429b565b6142d96040830186613efa565b6142e66060830185613efa565b81810360808301526142f88184613d74565b90509695505050505050565b61430d81613ce7565b811461431857600080fd5b50565b60008135905061432a81614304565b92915050565b6143398161419d565b811461434457600080fd5b50565b60008135905061435681614330565b92915050565b600060ff82169050919050565b6143728161435c565b811461437d57600080fd5b50565b60008135905061438f81614369565b92915050565b6000806000606084860312156143ae576143ad613c58565b5b60006143bc8682870161431b565b93505060206143cd86828701614347565b92505060406143de86828701614380565b9150509250925092565b600060a08301600083015161440060008601826141ab565b50602083015161441360208601826141ab565b50604083015161442660408601826141ba565b50606083015161443960608601826141ba565b50608083015184820360808601526144518282614146565b9150508091505092915050565b6000602082019050818103600083015261447881846143e8565b905092915050565b600080fd5b600080fd5b60008083601f8401126144a05761449f613f24565b5b8235905067ffffffffffffffff8111156144bd576144bc614480565b5b6020830191508360208202830111156144d9576144d8614485565b5b9250929050565b600080600080600080600060c0888a0312156144ff576144fe613c58565b5b600061450d8a828b01614347565b975050602061451e8a828b01614380565b965050604061452f8a828b01614347565b95505060606145408a828b01614347565b94505060806145518a828b01613df0565b93505060a088013567ffffffffffffffff81111561457257614571613c5d565b5b61457e8a828b0161448a565b925092505092959891949750929550565b600080604083850312156145a6576145a5613c58565b5b60006145b485828601613df0565b92505060206145c585828601613df0565b9150509250929050565b60006101008201905081810360008301526145ea818b613d74565b90506145f9602083018a613e64565b6146066040830189613cf3565b614613606083018861429b565b6146206080830187613efa565b61462d60a0830186613efa565b61463a60c0830185613efa565b61464760e0830184613efa565b9998505050505050505050565b6000806040838503121561466b5761466a613c58565b5b600061467985828601613ea5565b925050602061468a8582860161431b565b9150509250929050565b600067ffffffffffffffff8211156146af576146ae613f2e565b5b6146b882613d63565b9050602081019050919050565b60006146d86146d384614694565b613f8e565b9050828152602081018484840111156146f4576146f3613f29565b5b6146ff848285613fda565b509392505050565b600082601f83011261471c5761471b613f24565b5b813561472c8482602086016146c5565b91505092915050565b6000806000806080858703121561474f5761474e613c58565b5b600061475d87828801613ea5565b945050602061476e87828801613ea5565b935050604061477f87828801613df0565b925050606085013567ffffffffffffffff8111156147a05761479f613c5d565b5b6147ac87828801614707565b91505092959194509250565b6000602082840312156147ce576147cd613c58565b5b60006147dc8482850161431b565b91505092915050565b600080600080608085870312156147ff576147fe613c58565b5b600061480d87828801613df0565b945050602061481e87828801613df0565b935050604061482f87828801614380565b925050606061484087828801614380565b91505092959194509250565b60008083601f84011261486257614861613f24565b5b8235905067ffffffffffffffff81111561487f5761487e614480565b5b60208301915083600182028301111561489b5761489a614485565b5b9250929050565b6000806000806000608086880312156148be576148bd613c58565b5b60006148cc88828901614347565b95505060206148dd88828901614347565b94505060406148ee88828901613df0565b935050606086013567ffffffffffffffff81111561490f5761490e613c5d565b5b61491b8882890161484c565b92509250509295509295909350565b6000806040838503121561494157614940613c58565b5b600061494f85828601613df0565b925050602061496085828601614380565b9150509250929050565b6000806040838503121561498157614980613c58565b5b600061498f85828601613ea5565b92505060206149a085828601613ea5565b9150509250929050565b7f4e487b7100000000000000000000000000000000000000000000000000000000600052602260045260246000fd5b600060028204905060018216806149f157607f821691505b602082108103614a0457614a036149aa565b5b50919050565b7f4552433732313a20617070726f76616c20746f2063757272656e74206f776e6560008201527f7200000000000000000000000000000000000000000000000000000000000000602082015250565b6000614a66602183613d28565b9150614a7182614a0a565b604082019050919050565b60006020820190508181036000830152614a9581614a59565b9050919050565b7f4552433732313a20617070726f76652063616c6c6572206973206e6f7420746f60008201527f6b656e206f776e6572206e6f7220617070726f76656420666f7220616c6c0000602082015250565b6000614af8603e83613d28565b9150614b0382614a9c565b604082019050919050565b60006020820190508181036000830152614b2781614aeb565b9050919050565b7f596f7520617265206e6f7420746865206f776e6572206f66207468697320636f60008201527f6e74726163740000000000000000000000000000000000000000000000000000602082015250565b6000614b8a602683613d28565b9150614b9582614b2e565b604082019050919050565b60006020820190508181036000830152614bb981614b7d565b9050919050565b7f5472616e73666572206973206c6f636b206e6f77000000000000000000000000600082015250565b6000614bf6601483613d28565b9150614c0182614bc0565b602082019050919050565b60006020820190508181036000830152614c2581614be9565b9050919050565b7f4552433732313a2063616c6c6572206973206e6f7420746f6b656e206f776e6560008201527f72206e6f7220617070726f766564000000000000000000000000000000000000602082015250565b6000614c88602e83613d28565b9150614c9382614c2c565b604082019050919050565b60006020820190508181036000830152614cb781614c7b565b9050919050565b7f4e487b7100000000000000000000000000000000000000000000000000000000600052601160045260246000fd5b6000614cf882613dcf565b9150614d0383613dcf565b9250828202614d1181613dcf565b91508282048414831517614d2857614d27614cbe565b5b5092915050565b7f4e487b7100000000000000000000000000000000000000000000000000000000600052601260045260246000fd5b6000614d6982613dcf565b9150614d7483613dcf565b925082614d8457614d83614d2f565b5b828204905092915050565b6000614d9a82613dcf565b9150614da583613dcf565b9250828201905080821115614dbd57614dbc614cbe565b5b92915050565b6000614dce82613dcf565b9150614dd983613dcf565b9250828203905081811115614df157614df0614cbe565b5b92915050565b7f54686973206973206e6f74207374616b65206164647265737300000000000000600082015250565b6000614e2d601983613d28565b9150614e3882614df7565b602082019050919050565b60006020820190508181036000830152614e5c81614e20565b9050919050565b7f4552433732313a20696e76616c696420746f6b656e2049440000000000000000600082015250565b6000614e99601883613d28565b9150614ea482614e63565b602082019050919050565b60006020820190508181036000830152614ec881614e8c565b9050919050565b7f4e487b7100000000000000000000000000000000000000000000000000000000600052603260045260246000fd5b600080fd5b600080fd5b600080fd5b60008083356001602003843603038112614f2a57614f29614efe565b5b80840192508235915067ffffffffffffffff821115614f4c57614f4b614f03565b5b602083019250600182023603831315614f6857614f67614f08565b5b509250929050565b6000614f7b82613dcf565b91507fffffffffffffffffffffffffffffffffffffffffffffffffffffffffffffffff8203614fad57614fac614cbe565b5b600182019050919050565b7f4552433732313a2061646472657373207a65726f206973206e6f74206120766160008201527f6c6964206f776e65720000000000000000000000000000000000000000000000602082015250565b6000615014602983613d28565b915061501f82614fb8565b604082019050919050565b6000602082019050818103600083015261504381615007565b9050919050565b600081905092915050565b600061506082613d1d565b61506a818561504a565b935061507a818560208601613d39565b80840191505092915050565b60006150928285615055565b915061509e8284615055565b91508190509392505050565b7f5265656e7472616e637947756172643a207265656e7472616e742063616c6c00600082015250565b60006150e0601f83613d28565b91506150eb826150aa565b602082019050919050565b6000602082019050818103600083015261510f816150d3565b9050919050565b60008151905061512581613dd9565b92915050565b60006020828403121561514157615140613c58565b5b600061514f84828501615116565b91505092915050565b7f596f7520646f6e74206861766520656e6f7567682062616c616e636500000000600082015250565b600061518e601c83613d28565b915061519982615158565b602082019050919050565b600060208201905081810360008301526151bd81615181565b9050919050565b7f616d6f756e740000000000000000000000000000000000000000000000000000600082015250565b60006151fa600683613d28565b9150615205826151c4565b602082019050919050565b60006020820190508181036000830152615229816151ed565b9050919050565b7f73746f636b000000000000000000000000000000000000000000000000000000600082015250565b6000615266600583613d28565b915061527182615230565b602082019050919050565b6000602082019050818103600083015261529581615259565b9050919050565b7f617661696c61626c650000000000000000000000000000000000000000000000600082015250565b60006152d2600983613d28565b91506152dd8261529c565b602082019050919050565b60006020820190508181036000830152615301816152c5565b9050919050565b7f6f6e6c794f776e65720000000000000000000000000000000000000000000000600082015250565b600061533e600983613d28565b915061534982615308565b602082019050919050565b6000602082019050818103600083015261536d81615331565b9050919050565b7f74686973206973206e6f74206e66742070726963650000000000000000000000600082015250565b60006153aa601583613d28565b91506153b582615374565b602082019050919050565b600060208201905081810360008301526153d98161539d565b9050919050565b600081905092915050565b50565b60006153fb6000836153e0565b9150615406826153eb565b600082019050919050565b600061541c826153ee565b9150819050919050565b7f4661696c656420746f2073656e64204574686572000000000000000000000000600082015250565b600061545c601483613d28565b915061546782615426565b602082019050919050565b6000602082019050818103600083015261548b8161544f565b9050919050565b600061549d8261419d565b91506154a88361419d565b9250828203905061ffff8111156154c2576154c1614cbe565b5b92915050565b60008190508160005260206000209050919050565b60006020601f8301049050919050565b600082821b905092915050565b60006008830261552a7fffffffffffffffffffffffffffffffffffffffffffffffffffffffffffffffff826154ed565b61553486836154ed565b95508019841693508086168417925050509392505050565b6000819050919050565b600061557161556c61556784613dcf565b61554c565b613dcf565b9050919050565b6000819050919050565b61558b83615556565b61559f61559782615578565b8484546154fa565b825550505050565b600090565b6155b46155a7565b6155bf818484615582565b505050565b5b818110156155e3576155d86000826155ac565b6001810190506155c5565b5050565b601f821115615628576155f9816154c8565b615602846154dd565b81016020851015615611578190505b61562561561d856154dd565b8301826155c4565b50505b505050565b600082821c905092915050565b600061564b6000198460080261562d565b1980831691505092915050565b6000615664838361563a565b9150826002028217905092915050565b61567d82613d1d565b67ffffffffffffffff81111561569657615695613f2e565b5b6156a082546149d9565b6156ab8282856155e7565b600060209050601f8311600181146156de57600084156156cc578287015190505b6156d68582615658565b86555061573e565b601f1984166156ec866154c8565b60005b82811015615714578489015182556001820191506020850194506020810190506156ef565b86831015615731578489015161572d601f89168261563a565b8355505b6001600288020188555050505b505050505050565b6000819050919050565b61575981615746565b811461576457600080fd5b50565b60008151905061577681615750565b92915050565b60006020828403121561579257615791613c58565b5b60006157a084828501615767565b91505092915050565b7f4552433732313a207472616e736665722066726f6d20696e636f72726563742060008201527f6f776e6572000000000000000000000000000000000000000000000000000000602082015250565b6000615805602583613d28565b9150615810826157a9565b604082019050919050565b60006020820190508181036000830152615834816157f8565b9050919050565b7f4552433732313a207472616e7366657220746f20746865207a65726f2061646460008201527f7265737300000000000000000000000000000000000000000000000000000000602082015250565b6000615897602483613d28565b91506158a28261583b565b604082019050919050565b600060208201905081810360008301526158c68161588a565b9050919050565b7f4552433732313a20617070726f766520746f2063616c6c657200000000000000600082015250565b6000615903601983613d28565b915061590e826158cd565b602082019050919050565b60006020820190508181036000830152615932816158f6565b9050919050565b7f4552433732313a207472616e7366657220746f206e6f6e20455243373231526560008201527f63656976657220696d706c656d656e7465720000000000000000000000000000602082015250565b6000615995603283613d28565b91506159a082615939565b604082019050919050565b600060208201905081810360008301526159c481615988565b9050919050565b60006060820190506159e06000830186613e64565b6159ed6020830185613e64565b6159fa6040830184613efa565b949350505050565b7f4552433732313a206d696e7420746f20746865207a65726f2061646472657373600082015250565b6000615a38602083613d28565b9150615a4382615a02565b602082019050919050565b60006020820190508181036000830152615a6781615a2b565b9050919050565b7f4552433732313a20746f6b656e20616c7265616479206d696e74656400000000600082015250565b6000615aa4601c83613d28565b9150615aaf82615a6e565b602082019050919050565b60006020820190508181036000830152615ad381615a97565b9050919050565b7f45524337323155524953746f726167653a2055524920736574206f66206e6f6e60008201527f6578697374656e7420746f6b656e000000000000000000000000000000000000602082015250565b6000615b36602e83613d28565b9150615b4182615ada565b604082019050919050565b60006020820190508181036000830152615b6581615b29565b9050919050565b600081519050919050565b600082825260208201905092915050565b6000615b9382615b6c565b615b9d8185615b77565b9350615bad818560208601613d39565b615bb681613d63565b840191505092915050565b6000608082019050615bd66000830187613e64565b615be36020830186613e64565b615bf06040830185613efa565b8181036060830152615c028184615b88565b905095945050505050565b600081519050615c1c81613c8e565b92915050565b600060208284031215615c3857615c37613c58565b5b6000615c4684828501615c0d565b91505092915050565b6000615c5a82613dcf565b9150615c6583613dcf565b925082615c7557615c74614d2f565b5b828206905092915050565b600081519050615c8f81614304565b92915050565b600060208284031215615cab57615caa613c58565b5b6000615cb984828501615c80565b91505092915050565b7f5361666545524332303a204552433230206f7065726174696f6e20646964206e60008201527f6f74207375636365656400000000000000000000000000000000000000000000602082015250565b6000615d1e602a83613d28565b9150615d2982615cc2565b604082019050919050565b60006020820190508181036000830152615d4d81615d11565b9050919050565b7f416464726573733a20696e73756666696369656e742062616c616e636520666f60008201527f722063616c6c0000000000000000000000000000000000000000000000000000602082015250565b6000615db0602683613d28565b9150615dbb82615d54565b604082019050919050565b60006020820190508181036000830152615ddf81615da3565b9050919050565b7f416464726573733a2063616c6c20746f206e6f6e2d636f6e7472616374000000600082015250565b6000615e1c601d83613d28565b9150615e2782615de6565b602082019050919050565b60006020820190508181036000830152615e4b81615e0f565b9050919050565b6000615e5d82615b6c565b615e6781856153e0565b9350615e77818560208601613d39565b80840191505092915050565b6000615e8f8284615e52565b91508190509291505056fea26469706673582212202d8b9ddedd09920f886a41b4e00ba387fc0067625836328a15bc275ee20fe38c64736f6c63430008110033",
  "immutableReferences": {},
  "source": "// SPDX-License-Identifier: MIT\npragma solidity ^0.8.0;\n\nimport \"@openzeppelin/contracts/token/ERC721/extensions/ERC721URIStorage.sol\";\nimport \"@openzeppelin/contracts/security/ReentrancyGuard.sol\";\nimport \"@openzeppelin/contracts/token/ERC20/utils/SafeERC20.sol\";\nimport \"./IPriceFeed.sol\";\n\n\ncontract MintNft is ERC721URIStorage, ReentrancyGuard {\n    using SafeERC20 for IERC20;\n    address public BUSD;\n    address public ChainLinkPriceFeed;\n    uint256 public _tokenIds;//* this was private - i changed it for get my nfts\n\n    constructor() ERC721(\"SpaceSix\", \"SCX\") {\n        owner = msg.sender; //! Will be shojaei address\n        _tokenIds = 9999;\n        BUSD = 0xC1aD2f3F1615c54953aD45137FEf890556f13628;//busd testnet\n        ChainLinkPriceFeed = 0xd6d72BB020e10F5DB34C6a33f77596c0c5F0e702;//bsctestnet\n    }\n\n    modifier enoughDeposit(uint256 _amount) {\n        uint256 balance = IERC20(BUSD).balanceOf(msg.sender);\n        uint256 amount = _amount;\n        require(\n            balance >= amount && amount != 0,\n            \"You dont have enough balance\"\n        );\n        _;\n    }\n\n    \n    \n\n    function mintNFT(\n        uint256 _currentTokenId,\n        uint256 _amount,\n        uint8 _type,\n        uint8 _howMany\n    ) external payable nonReentrant enoughDeposit(_amount) returns (bool) {\n        uint256 finalAmount = AllNfts[_currentTokenId].amount * _howMany;\n        require(_amount == finalAmount, \"amount\");\n        require(AllNfts[_currentTokenId].count > 0, \"stock\");\n        require(AllNfts[_currentTokenId].count >= _howMany, \"available\");\n\n        if (_type == 0) {\n            require(msg.sender == owner ,\"onlyOwner\");\n        }else if (_type == 1){\n            SafeERC20.safeTransferFrom(IERC20(BUSD), msg.sender, owner, finalAmount);\n        }else {\n            address ownerAddress = payable(0x116F0BdBDc03dd620EB7EE7550184D38B9442eaa);\n            uint bnbPrice = toBnbPrice(_currentTokenId ,_howMany);\n            require(msg.value >= bnbPrice , \"this is not nft price\");\n            (bool sent,) = ownerAddress.call{value: msg.value}(\"\");\n            require(sent, \"Failed to send Ether\");\n        }\n\n        EachNFT storage currentItem = AllNfts[_currentTokenId];\n        currentItem.count -= _howMany;\n\n        for (uint256 i = 1; i <= _howMany; i++) {\n            _tokenIds += 1;\n            _mint(msg.sender, _tokenIds);\n            _setTokenURI(_tokenIds, AllNfts[_currentTokenId].metaData);\n\n            Transaction memory newTransaction = Transaction(\n                AllNfts[_currentTokenId].metaData,\n                msg.sender,\n                false,\n                AllNfts[_currentTokenId].level,\n                0,\n                _tokenIds,\n                finalAmount,\n                AllNfts[_currentTokenId].tokenId\n            );\n\n            transactions[_tokenIds] = newTransaction;\n        }\n        return true;\n    }\n\n\n    function toBnbPrice(uint256 _tokenId , uint8 _howMany) public view returns(uint) {\n        uint bnb = uint(IPriceFeed(ChainLinkPriceFeed).getLatestPrice());\n        uint nftPrice = AllNfts[_tokenId].amount * 10**18;\n        nftPrice = nftPrice * _howMany;\n        bnb = bnb * 10 ** 10;\n        nftPrice = nftPrice / bnb;\n        nftPrice = nftPrice / 10**15;\n        nftPrice = nftPrice * 10**15;\n        return nftPrice;\n    }\n\n    function updateTokenURI(uint256 _tokenId, string memory _tokenURI) public onlyOwner {\n        _updateTokenURI(_tokenId, _tokenURI);\n    }\n\n    function changeTransferLock(bool _change) public onlyOwner {\n        _transferLock = _change;\n    }\n\n    function setStakeAddress(address _stakeAddress) public onlyOwner {\n        require(stakeAddress == address(0));\n        stakeAddress = _stakeAddress;\n    }\n\n    function stake(uint256 _tokenId , uint256 _endTime) public {\n        require (msg.sender == stakeAddress , \"This is not stake address\");\n        Transaction storage currentItem = transactions[_tokenId];\n        currentItem.didStake = true;\n        currentItem.stakedTime = block.timestamp + 300;//_endTime;\n    }\n\n\n    function unStake(uint256 _tokenId) public {\n        require (msg.sender == stakeAddress , \"This is not stake address\");\n        Transaction storage currentItem = transactions[_tokenId];\n        currentItem.didStake = false;\n        currentItem.stakedTime = 0;\n    }\n\n    function totalSupply() public pure returns (uint256) {\n        return 8000;\n    }\n\n    function getNFT(uint256 _tokenid) external view returns(EachNFT memory){\n        return AllNfts[_tokenid];\n    }\n\n    function getTransaction(uint256 _tokenid) external view returns(Transaction memory){\n        return transactions[_tokenid];\n    }\n\n}\n\n\n\n",
  "sourcePath": "/Users/istore/Desktop/Blockchain Projects/Space six/Develop/SpaceSix_Contracts2/contracts/MintNft.sol",
  "compiler": {
    "name": "solc",
    "version": "0.8.17+commit.8df45f5f.Emscripten.clang"
  },
  "schemaVersion": "3.4.3",
  "updatedAt": "2022-11-17T11:42:18.302Z",
  "networkType": "ethereum",
  "devdoc": {
    "kind": "dev",
    "methods": {
      "approve(address,uint256)": {
        "details": "See {IERC721-approve}."
      },
      "balanceOf(address)": {
        "details": "See {IERC721-balanceOf}."
      },
      "getApproved(uint256)": {
        "details": "See {IERC721-getApproved}."
      },
      "isApprovedForAll(address,address)": {
        "details": "See {IERC721-isApprovedForAll}."
      },
      "name()": {
        "details": "See {IERC721Metadata-name}."
      },
      "ownerOf(uint256)": {
        "details": "See {IERC721-ownerOf}."
      },
      "safeTransferFrom(address,address,uint256)": {
        "details": "See {IERC721-safeTransferFrom}."
      },
      "safeTransferFrom(address,address,uint256,bytes)": {
        "details": "See {IERC721-safeTransferFrom}."
      },
      "setApprovalForAll(address,bool)": {
        "details": "See {IERC721-setApprovalForAll}."
      },
      "supportsInterface(bytes4)": {
        "details": "See {IERC165-supportsInterface}."
      },
      "symbol()": {
        "details": "See {IERC721Metadata-symbol}."
      },
      "tokenURI(uint256)": {
        "details": "See {IERC721Metadata-tokenURI}."
      },
      "transferFrom(address,address,uint256)": {
        "details": "See {IERC721-transferFrom}."
      }
    },
    "version": 1
  },
  "userdoc": {
    "kind": "user",
    "methods": {},
    "version": 1
  }
}