{
  "contractName": "MintNft",
  "abi": [
    {
      "inputs": [],
      "stateMutability": "nonpayable",
      "type": "constructor"
    },
    {
      "anonymous": false,
      "inputs": [
        {
          "indexed": true,
          "internalType": "address",
          "name": "owner",
          "type": "address"
        },
        {
          "indexed": true,
          "internalType": "address",
          "name": "approved",
          "type": "address"
        },
        {
          "indexed": true,
          "internalType": "uint256",
          "name": "tokenId",
          "type": "uint256"
        }
      ],
      "name": "Approval",
      "type": "event"
    },
    {
      "anonymous": false,
      "inputs": [
        {
          "indexed": true,
          "internalType": "address",
          "name": "owner",
          "type": "address"
        },
        {
          "indexed": true,
          "internalType": "address",
          "name": "operator",
          "type": "address"
        },
        {
          "indexed": false,
          "internalType": "bool",
          "name": "approved",
          "type": "bool"
        }
      ],
      "name": "ApprovalForAll",
      "type": "event"
    },
    {
      "anonymous": false,
      "inputs": [
        {
          "indexed": true,
          "internalType": "address",
          "name": "from",
          "type": "address"
        },
        {
          "indexed": true,
          "internalType": "address",
          "name": "to",
          "type": "address"
        },
        {
          "indexed": true,
          "internalType": "uint256",
          "name": "tokenId",
          "type": "uint256"
        }
      ],
      "name": "Transfer",
      "type": "event"
    },
    {
      "inputs": [
        {
          "internalType": "uint256",
          "name": "",
          "type": "uint256"
        }
      ],
      "name": "AllNfts",
      "outputs": [
        {
          "internalType": "uint16",
          "name": "level",
          "type": "uint16"
        },
        {
          "internalType": "uint16",
          "name": "count",
          "type": "uint16"
        },
        {
          "internalType": "uint256",
          "name": "amount",
          "type": "uint256"
        },
        {
          "internalType": "uint256",
          "name": "tokenId",
          "type": "uint256"
        },
        {
          "internalType": "string",
          "name": "metaData",
          "type": "string"
        }
      ],
      "stateMutability": "view",
      "type": "function",
      "constant": true
    },
    {
      "inputs": [],
      "name": "BUSD",
      "outputs": [
        {
          "internalType": "address",
          "name": "",
          "type": "address"
        }
      ],
      "stateMutability": "view",
      "type": "function",
      "constant": true
    },
    {
      "inputs": [],
      "name": "ChainLinkPriceFeed",
      "outputs": [
        {
          "internalType": "address",
          "name": "",
          "type": "address"
        }
      ],
      "stateMutability": "view",
      "type": "function",
      "constant": true
    },
    {
      "inputs": [],
      "name": "_tokenIds",
      "outputs": [
        {
          "internalType": "uint256",
          "name": "",
          "type": "uint256"
        }
      ],
      "stateMutability": "view",
      "type": "function",
      "constant": true
    },
    {
      "inputs": [
        {
          "internalType": "uint16",
          "name": "howMany",
          "type": "uint16"
        },
        {
          "internalType": "uint8",
          "name": "_plus",
          "type": "uint8"
        },
        {
          "internalType": "uint16",
          "name": "_level",
          "type": "uint16"
        },
        {
          "internalType": "uint16",
          "name": "_count",
          "type": "uint16"
        },
        {
          "internalType": "uint256",
          "name": "_amount",
          "type": "uint256"
        },
        {
          "internalType": "string[]",
          "name": "_metaDatas",
          "type": "string[]"
        }
      ],
      "name": "addNfts",
      "outputs": [],
      "stateMutability": "nonpayable",
      "type": "function"
    },
    {
      "inputs": [
        {
          "internalType": "uint16",
          "name": "_level",
          "type": "uint16"
        },
        {
          "internalType": "uint16",
          "name": "_count",
          "type": "uint16"
        },
        {
          "internalType": "uint256",
          "name": "_amount",
          "type": "uint256"
        },
        {
          "internalType": "string",
          "name": "_metaData",
          "type": "string"
        }
      ],
      "name": "addOneNft",
      "outputs": [],
      "stateMutability": "nonpayable",
      "type": "function"
    },
    {
      "inputs": [
        {
          "internalType": "address",
          "name": "to",
          "type": "address"
        },
        {
          "internalType": "uint256",
          "name": "tokenId",
          "type": "uint256"
        }
      ],
      "name": "approve",
      "outputs": [],
      "stateMutability": "nonpayable",
      "type": "function"
    },
    {
      "inputs": [
        {
          "internalType": "address",
          "name": "owner",
          "type": "address"
        }
      ],
      "name": "balanceOf",
      "outputs": [
        {
          "internalType": "uint256",
          "name": "",
          "type": "uint256"
        }
      ],
      "stateMutability": "view",
      "type": "function",
      "constant": true
    },
    {
      "inputs": [
        {
          "internalType": "address",
          "name": "_newOwner",
          "type": "address"
        }
      ],
      "name": "changeOwner",
      "outputs": [],
      "stateMutability": "nonpayable",
      "type": "function"
    },
    {
      "inputs": [
        {
          "internalType": "bool",
          "name": "_increase",
          "type": "bool"
        },
        {
          "internalType": "uint16",
          "name": "_planetTokenId",
          "type": "uint16"
        },
        {
          "internalType": "uint8",
          "name": "_percent",
          "type": "uint8"
        }
      ],
      "name": "changePlanetPrice",
      "outputs": [],
      "stateMutability": "nonpayable",
      "type": "function"
    },
    {
      "inputs": [
        {
          "internalType": "bool",
          "name": "_increase",
          "type": "bool"
        },
        {
          "internalType": "uint16",
          "name": "_level",
          "type": "uint16"
        },
        {
          "internalType": "uint8",
          "name": "_percent",
          "type": "uint8"
        }
      ],
      "name": "changelandingsPrice",
      "outputs": [],
      "stateMutability": "nonpayable",
      "type": "function"
    },
    {
      "inputs": [
        {
          "internalType": "uint256",
          "name": "tokenId",
          "type": "uint256"
        }
      ],
      "name": "getApproved",
      "outputs": [
        {
          "internalType": "address",
          "name": "",
          "type": "address"
        }
      ],
      "stateMutability": "view",
      "type": "function",
      "constant": true
    },
    {
      "inputs": [
        {
          "internalType": "address",
          "name": "owner",
          "type": "address"
        },
        {
          "internalType": "address",
          "name": "operator",
          "type": "address"
        }
      ],
      "name": "isApprovedForAll",
      "outputs": [
        {
          "internalType": "bool",
          "name": "",
          "type": "bool"
        }
      ],
      "stateMutability": "view",
      "type": "function",
      "constant": true
    },
    {
      "inputs": [],
      "name": "name",
      "outputs": [
        {
          "internalType": "string",
          "name": "",
          "type": "string"
        }
      ],
      "stateMutability": "view",
      "type": "function",
      "constant": true
    },
    {
      "inputs": [],
      "name": "owner",
      "outputs": [
        {
          "internalType": "address",
          "name": "",
          "type": "address"
        }
      ],
      "stateMutability": "view",
      "type": "function",
      "constant": true
    },
    {
      "inputs": [
        {
          "internalType": "uint256",
          "name": "tokenId",
          "type": "uint256"
        }
      ],
      "name": "ownerOf",
      "outputs": [
        {
          "internalType": "address",
          "name": "",
          "type": "address"
        }
      ],
      "stateMutability": "view",
      "type": "function",
      "constant": true
    },
    {
      "inputs": [
        {
          "internalType": "address",
          "name": "from",
          "type": "address"
        },
        {
          "internalType": "address",
          "name": "to",
          "type": "address"
        },
        {
          "internalType": "uint256",
          "name": "tokenId",
          "type": "uint256"
        }
      ],
      "name": "safeTransferFrom",
      "outputs": [],
      "stateMutability": "nonpayable",
      "type": "function"
    },
    {
      "inputs": [
        {
          "internalType": "address",
          "name": "from",
          "type": "address"
        },
        {
          "internalType": "address",
          "name": "to",
          "type": "address"
        },
        {
          "internalType": "uint256",
          "name": "tokenId",
          "type": "uint256"
        },
        {
          "internalType": "bytes",
          "name": "data",
          "type": "bytes"
        }
      ],
      "name": "safeTransferFrom",
      "outputs": [],
      "stateMutability": "nonpayable",
      "type": "function"
    },
    {
      "inputs": [
        {
          "internalType": "address",
          "name": "operator",
          "type": "address"
        },
        {
          "internalType": "bool",
          "name": "approved",
          "type": "bool"
        }
      ],
      "name": "setApprovalForAll",
      "outputs": [],
      "stateMutability": "nonpayable",
      "type": "function"
    },
    {
      "inputs": [],
      "name": "stakeAddress",
      "outputs": [
        {
          "internalType": "address",
          "name": "",
          "type": "address"
        }
      ],
      "stateMutability": "view",
      "type": "function",
      "constant": true
    },
    {
      "inputs": [
        {
          "internalType": "address",
          "name": "from",
          "type": "address"
        },
        {
          "internalType": "address",
          "name": "to",
          "type": "address"
        },
        {
          "internalType": "uint256",
          "name": "tokenId",
          "type": "uint256"
        }
      ],
      "name": "stakeTransferFrom",
      "outputs": [],
      "stateMutability": "nonpayable",
      "type": "function"
    },
    {
      "inputs": [
        {
          "internalType": "bytes4",
          "name": "interfaceId",
          "type": "bytes4"
        }
      ],
      "name": "supportsInterface",
      "outputs": [
        {
          "internalType": "bool",
          "name": "",
          "type": "bool"
        }
      ],
      "stateMutability": "view",
      "type": "function",
      "constant": true
    },
    {
      "inputs": [],
      "name": "symbol",
      "outputs": [
        {
          "internalType": "string",
          "name": "",
          "type": "string"
        }
      ],
      "stateMutability": "view",
      "type": "function",
      "constant": true
    },
    {
      "inputs": [],
      "name": "tokenId",
      "outputs": [
        {
          "internalType": "uint256",
          "name": "",
          "type": "uint256"
        }
      ],
      "stateMutability": "view",
      "type": "function",
      "constant": true
    },
    {
      "inputs": [
        {
          "internalType": "uint256",
          "name": "tokenId",
          "type": "uint256"
        }
      ],
      "name": "tokenURI",
      "outputs": [
        {
          "internalType": "string",
          "name": "",
          "type": "string"
        }
      ],
      "stateMutability": "view",
      "type": "function",
      "constant": true
    },
    {
      "inputs": [
        {
          "internalType": "uint256",
          "name": "",
          "type": "uint256"
        }
      ],
      "name": "transactions",
      "outputs": [
        {
          "internalType": "string",
          "name": "metaData",
          "type": "string"
        },
        {
          "internalType": "address",
          "name": "nftOwner",
          "type": "address"
        },
        {
          "internalType": "bool",
          "name": "didStake",
          "type": "bool"
        },
        {
          "internalType": "uint16",
          "name": "level",
          "type": "uint16"
        },
        {
          "internalType": "uint256",
          "name": "stakedTime",
          "type": "uint256"
        },
        {
          "internalType": "uint256",
          "name": "tokenId",
          "type": "uint256"
        },
        {
          "internalType": "uint256",
          "name": "amount",
          "type": "uint256"
        },
        {
          "internalType": "uint256",
          "name": "nftTokenId",
          "type": "uint256"
        }
      ],
      "stateMutability": "view",
      "type": "function",
      "constant": true
    },
    {
      "inputs": [
        {
          "internalType": "address",
          "name": "from",
          "type": "address"
        },
        {
          "internalType": "address",
          "name": "to",
          "type": "address"
        },
        {
          "internalType": "uint256",
          "name": "tokenId",
          "type": "uint256"
        }
      ],
      "name": "transferFrom",
      "outputs": [],
      "stateMutability": "nonpayable",
      "type": "function"
    },
    {
      "inputs": [
        {
          "internalType": "uint256",
          "name": "_currentId",
          "type": "uint256"
        },
        {
          "internalType": "uint256",
          "name": "_amount",
          "type": "uint256"
        },
        {
          "internalType": "uint8",
          "name": "_type",
          "type": "uint8"
        },
        {
          "internalType": "uint8",
          "name": "_howMany",
          "type": "uint8"
        },
        {
          "internalType": "address",
          "name": "_nftOwner",
          "type": "address"
        }
      ],
      "name": "mintNFT",
      "outputs": [
        {
          "internalType": "bool",
          "name": "",
          "type": "bool"
        }
      ],
      "stateMutability": "payable",
      "type": "function",
      "payable": true
    },
    {
      "inputs": [
        {
          "internalType": "uint256",
          "name": "_tokenId",
          "type": "uint256"
        },
        {
          "internalType": "uint8",
          "name": "_howMany",
          "type": "uint8"
        }
      ],
      "name": "toBnbPrice",
      "outputs": [
        {
          "internalType": "uint256",
          "name": "",
          "type": "uint256"
        }
      ],
      "stateMutability": "view",
      "type": "function",
      "constant": true
    },
    {
      "inputs": [
        {
          "internalType": "uint256",
          "name": "_tokenId",
          "type": "uint256"
        },
        {
          "internalType": "string",
          "name": "_tokenURI",
          "type": "string"
        }
      ],
      "name": "updateTokenURI",
      "outputs": [],
      "stateMutability": "nonpayable",
      "type": "function"
    },
    {
      "inputs": [
        {
          "internalType": "bool",
          "name": "_change",
          "type": "bool"
        }
      ],
      "name": "changeTransferLock",
      "outputs": [],
      "stateMutability": "nonpayable",
      "type": "function"
    },
    {
      "inputs": [
        {
          "internalType": "address",
          "name": "_stakeAddress",
          "type": "address"
        }
      ],
      "name": "setStakeAddress",
      "outputs": [],
      "stateMutability": "nonpayable",
      "type": "function"
    },
    {
      "inputs": [
        {
          "internalType": "uint256",
          "name": "_tokenId",
          "type": "uint256"
        },
        {
          "internalType": "uint256",
          "name": "_endTime",
          "type": "uint256"
        }
      ],
      "name": "stake",
      "outputs": [],
      "stateMutability": "nonpayable",
      "type": "function"
    },
    {
      "inputs": [
        {
          "internalType": "uint256",
          "name": "_tokenId",
          "type": "uint256"
        }
      ],
      "name": "unStake",
      "outputs": [],
      "stateMutability": "nonpayable",
      "type": "function"
    },
    {
      "inputs": [],
      "name": "totalSupply",
      "outputs": [
        {
          "internalType": "uint256",
          "name": "",
          "type": "uint256"
        }
      ],
      "stateMutability": "pure",
      "type": "function",
      "constant": true
    },
    {
      "inputs": [
        {
          "internalType": "uint256",
          "name": "_tokenid",
          "type": "uint256"
        }
      ],
      "name": "getNFT",
      "outputs": [
        {
          "components": [
            {
              "internalType": "uint16",
              "name": "level",
              "type": "uint16"
            },
            {
              "internalType": "uint16",
              "name": "count",
              "type": "uint16"
            },
            {
              "internalType": "uint256",
              "name": "amount",
              "type": "uint256"
            },
            {
              "internalType": "uint256",
              "name": "tokenId",
              "type": "uint256"
            },
            {
              "internalType": "string",
              "name": "metaData",
              "type": "string"
            }
          ],
          "internalType": "struct Owner.EachNFT",
          "name": "",
          "type": "tuple"
        }
      ],
      "stateMutability": "view",
      "type": "function",
      "constant": true
    },
    {
      "inputs": [
        {
          "internalType": "uint256",
          "name": "_tokenid",
          "type": "uint256"
        }
      ],
      "name": "getTransaction",
      "outputs": [
        {
          "components": [
            {
              "internalType": "string",
              "name": "metaData",
              "type": "string"
            },
            {
              "internalType": "address",
              "name": "nftOwner",
              "type": "address"
            },
            {
              "internalType": "bool",
              "name": "didStake",
              "type": "bool"
            },
            {
              "internalType": "uint16",
              "name": "level",
              "type": "uint16"
            },
            {
              "internalType": "uint256",
              "name": "stakedTime",
              "type": "uint256"
            },
            {
              "internalType": "uint256",
              "name": "tokenId",
              "type": "uint256"
            },
            {
              "internalType": "uint256",
              "name": "amount",
              "type": "uint256"
            },
            {
              "internalType": "uint256",
              "name": "nftTokenId",
              "type": "uint256"
            }
          ],
          "internalType": "struct Owner.Transaction",
          "name": "",
          "type": "tuple"
        }
      ],
      "stateMutability": "view",
      "type": "function",
      "constant": true
    }
  ],
  "bytecode": "0x60806040523480156200001157600080fd5b506040518060400160405280600881526020017f53706163655369780000000000000000000000000000000000000000000000008152506040518060400160405280600381526020017f5343580000000000000000000000000000000000000000000000000000000000815250336000806101000a81548173ffffffffffffffffffffffffffffffffffffffff021916908373ffffffffffffffffffffffffffffffffffffffff160217905550600180819055508160049081620000d6919062000466565b508060059081620000e8919062000466565b5050506001600c81905550336000806101000a81548173ffffffffffffffffffffffffffffffffffffffff021916908373ffffffffffffffffffffffffffffffffffffffff16021790555061270f600f8190555073e9e7cea3dedca5984780bafc599bd69add087d56600d60006101000a81548173ffffffffffffffffffffffffffffffffffffffff021916908373ffffffffffffffffffffffffffffffffffffffff1602179055507340bb32cf53ec527c2fdd8dca67bb88385db53021600e60006101000a81548173ffffffffffffffffffffffffffffffffffffffff021916908373ffffffffffffffffffffffffffffffffffffffff1602179055506200054d565b600081519050919050565b7f4e487b7100000000000000000000000000000000000000000000000000000000600052604160045260246000fd5b7f4e487b7100000000000000000000000000000000000000000000000000000000600052602260045260246000fd5b600060028204905060018216806200026e57607f821691505b60208210810362000284576200028362000226565b5b50919050565b60008190508160005260206000209050919050565b60006020601f8301049050919050565b600082821b905092915050565b600060088302620002ee7fffffffffffffffffffffffffffffffffffffffffffffffffffffffffffffffff82620002af565b620002fa8683620002af565b95508019841693508086168417925050509392505050565b6000819050919050565b6000819050919050565b600062000347620003416200033b8462000312565b6200031c565b62000312565b9050919050565b6000819050919050565b620003638362000326565b6200037b62000372826200034e565b848454620002bc565b825550505050565b600090565b6200039262000383565b6200039f81848462000358565b505050565b5b81811015620003c757620003bb60008262000388565b600181019050620003a5565b5050565b601f8211156200041657620003e0816200028a565b620003eb846200029f565b81016020851015620003fb578190505b620004136200040a856200029f565b830182620003a4565b50505b505050565b600082821c905092915050565b60006200043b600019846008026200041b565b1980831691505092915050565b600062000456838362000428565b9150826002028217905092915050565b6200047182620001ec565b67ffffffffffffffff8111156200048d576200048c620001f7565b5b62000499825462000255565b620004a6828285620003cb565b600060209050601f831160018114620004de5760008415620004c9578287015190505b620004d5858262000448565b86555062000545565b601f198416620004ee866200028a565b60005b828110156200051857848901518255600182019150602085019450602081019050620004f1565b8683101562000538578489015162000534601f89168262000428565b8355505b6001600288020188555050505b505050505050565b615d74806200055d6000396000f3fe60806040526004361061021a5760003560e01c806369dadda711610123578063a22cb465116100ab578063c87b56dd1161006f578063c87b56dd14610803578063ddfc4f8b14610840578063df2ca78914610869578063e2ebe47c14610892578063e985e9c5146108cf5761021a565b8063a22cb46514610734578063a6f9dae11461075d578063aa46a40014610786578063b88d4fde146107b1578063c14e6cd0146107da5761021a565b806385107367116100f257806385107367146106465780638bafd935146106715780638da5cb5b1461069a57806395d89b41146106c55780639ace38c2146106f05761021a565b806369dadda7146105875780636a8f240f146105b057806370a08231146105e05780637b0472f01461061d5761021a565b806333ea3dc8116101a657806342842e0e1161017557806342842e0e14610490578063484f4ea9146104b9578063576f7ea7146104e45780635d3eea91146105215780636352211e1461054a5761021a565b806333ea3dc8146103be5780633f1f792c146103fb578063406586b91461042657806340f48be4146104675761021a565b806317d70f7c116101ed57806317d70f7c146102ed57806318160ddd1461031857806318e97fd11461034357806323471d181461036c57806323b872dd146103955761021a565b806301ffc9a71461021f57806306fdde031461025c578063081812fc14610287578063095ea7b3146102c4575b600080fd5b34801561022b57600080fd5b5061024660048036038101906102419190613b8c565b61090c565b6040516102539190613bd4565b60405180910390f35b34801561026857600080fd5b506102716109ee565b60405161027e9190613c7f565b60405180910390f35b34801561029357600080fd5b506102ae60048036038101906102a99190613cd7565b610a80565b6040516102bb9190613d45565b60405180910390f35b3480156102d057600080fd5b506102eb60048036038101906102e69190613d8c565b610ac6565b005b3480156102f957600080fd5b50610302610bdd565b60405161030f9190613ddb565b60405180910390f35b34801561032457600080fd5b5061032d610be3565b60405161033a9190613ddb565b60405180910390f35b34801561034f57600080fd5b5061036a60048036038101906103659190613f2b565b610bed565b005b34801561037857600080fd5b50610393600480360381019061038e9190613f87565b610c89565b005b3480156103a157600080fd5b506103bc60048036038101906103b79190613fb4565b610db6565b005b3480156103ca57600080fd5b506103e560048036038101906103e09190613cd7565b610ec7565b6040516103f2919061414b565b60405180910390f35b34801561040757600080fd5b50610410611040565b60405161041d9190613d45565b60405180910390f35b34801561043257600080fd5b5061044d60048036038101906104489190613cd7565b611066565b60405161045e95949392919061417c565b60405180910390f35b34801561047357600080fd5b5061048e60048036038101906104899190614267565b611140565b005b34801561049c57600080fd5b506104b760048036038101906104b29190613fb4565b61126e565b005b3480156104c557600080fd5b506104ce61133f565b6040516104db9190613d45565b60405180910390f35b3480156104f057600080fd5b5061050b60048036038101906105069190613cd7565b611365565b6040516105189190614330565b60405180910390f35b34801561052d57600080fd5b5061054860048036038101906105439190613cd7565b611478565b005b34801561055657600080fd5b50610571600480360381019061056c9190613cd7565b61154a565b60405161057e9190613d45565b60405180910390f35b34801561059357600080fd5b506105ae60048036038101906105a991906143b2565b6115fb565b005b6105ca60048036038101906105c59190614461565b6116fc565b6040516105d79190613bd4565b60405180910390f35b3480156105ec57600080fd5b5061060760048036038101906106029190613f87565b611df6565b6040516106149190613ddb565b60405180910390f35b34801561062957600080fd5b50610644600480360381019061063f91906144dc565b611ead565b005b34801561065257600080fd5b5061065b611f7f565b6040516106689190613d45565b60405180910390f35b34801561067d57600080fd5b5061069860048036038101906106939190613fb4565b611fa5565b005b3480156106a657600080fd5b506106af612095565b6040516106bc9190613d45565b60405180910390f35b3480156106d157600080fd5b506106da6120b9565b6040516106e79190613c7f565b60405180910390f35b3480156106fc57600080fd5b5061071760048036038101906107129190613cd7565b61214b565b60405161072b98979695949392919061451c565b60405180910390f35b34801561074057600080fd5b5061075b600480360381019061075691906145a1565b612256565b005b34801561076957600080fd5b50610784600480360381019061077f9190613f87565b61226c565b005b34801561079257600080fd5b5061079b61233d565b6040516107a89190613ddb565b60405180910390f35b3480156107bd57600080fd5b506107d860048036038101906107d39190614682565b612343565b005b3480156107e657600080fd5b5061080160048036038101906107fc9190614705565b612456565b005b34801561080f57600080fd5b5061082a60048036038101906108259190613cd7565b612501565b6040516108379190613c7f565b60405180910390f35b34801561084c57600080fd5b5061086760048036038101906108629190614788565b612613565b005b34801561087557600080fd5b50610890600480360381019061088b9190614267565b6127d7565b005b34801561089e57600080fd5b506108b960048036038101906108b49190614810565b612943565b6040516108c69190613ddb565b60405180910390f35b3480156108db57600080fd5b506108f660048036038101906108f19190614850565b612a6e565b6040516109039190613bd4565b60405180910390f35b60007f80ac58cd000000000000000000000000000000000000000000000000000000007bffffffffffffffffffffffffffffffffffffffffffffffffffffffff1916827bffffffffffffffffffffffffffffffffffffffffffffffffffffffff191614806109d757507f5b5e139f000000000000000000000000000000000000000000000000000000007bffffffffffffffffffffffffffffffffffffffffffffffffffffffff1916827bffffffffffffffffffffffffffffffffffffffffffffffffffffffff1916145b806109e757506109e682612b02565b5b9050919050565b6060600480546109fd906148bf565b80601f0160208091040260200160405190810160405280929190818152602001828054610a29906148bf565b8015610a765780601f10610a4b57610100808354040283529160200191610a76565b820191906000526020600020905b815481529060010190602001808311610a5957829003601f168201915b5050505050905090565b6000610a8b82612b6c565b6009600083815260200190815260200160002060009054906101000a900473ffffffffffffffffffffffffffffffffffffffff169050919050565b6000610ad18261154a565b90508073ffffffffffffffffffffffffffffffffffffffff168373ffffffffffffffffffffffffffffffffffffffff1603610b41576040517f08c379a0000000000000000000000000000000000000000000000000000000008152600401610b3890614962565b60405180910390fd5b8073ffffffffffffffffffffffffffffffffffffffff16610b60612bb7565b73ffffffffffffffffffffffffffffffffffffffff161480610b8f5750610b8e81610b89612bb7565b612a6e565b5b610bce576040517f08c379a0000000000000000000000000000000000000000000000000000000008152600401610bc5906149f4565b60405180910390fd5b610bd88383612bbf565b505050565b60015481565b60006104e7905090565b60008054906101000a900473ffffffffffffffffffffffffffffffffffffffff1673ffffffffffffffffffffffffffffffffffffffff163373ffffffffffffffffffffffffffffffffffffffff1614610c7b576040517f08c379a0000000000000000000000000000000000000000000000000000000008152600401610c7290614a86565b60405180910390fd5b610c858282612c78565b5050565b60008054906101000a900473ffffffffffffffffffffffffffffffffffffffff1673ffffffffffffffffffffffffffffffffffffffff163373ffffffffffffffffffffffffffffffffffffffff1614610d17576040517f08c379a0000000000000000000000000000000000000000000000000000000008152600401610d0e90614a86565b60405180910390fd5b600073ffffffffffffffffffffffffffffffffffffffff16600660019054906101000a900473ffffffffffffffffffffffffffffffffffffffff1673ffffffffffffffffffffffffffffffffffffffff1614610d7257600080fd5b80600660016101000a81548173ffffffffffffffffffffffffffffffffffffffff021916908373ffffffffffffffffffffffffffffffffffffffff16021790555050565b60001515600660009054906101000a900460ff16151514610e0c576040517f08c379a0000000000000000000000000000000000000000000000000000000008152600401610e0390614af2565b60405180910390fd5b610e1d610e17612bb7565b82612c9d565b610e5c576040517f08c379a0000000000000000000000000000000000000000000000000000000008152600401610e5390614b84565b60405180910390fd5b6000600360008381526020019081526020016000209050828160010160006101000a81548173ffffffffffffffffffffffffffffffffffffffff021916908373ffffffffffffffffffffffffffffffffffffffff160217905550610ec1848484612d32565b50505050565b610ecf613a88565b6003600083815260200190815260200160002060405180610100016040529081600082018054610efe906148bf565b80601f0160208091040260200160405190810160405280929190818152602001828054610f2a906148bf565b8015610f775780601f10610f4c57610100808354040283529160200191610f77565b820191906000526020600020905b815481529060010190602001808311610f5a57829003601f168201915b505050505081526020016001820160009054906101000a900473ffffffffffffffffffffffffffffffffffffffff1673ffffffffffffffffffffffffffffffffffffffff1673ffffffffffffffffffffffffffffffffffffffff1681526020016001820160149054906101000a900460ff161515151581526020016001820160159054906101000a900461ffff1661ffff1661ffff1681526020016002820154815260200160038201548152602001600482015481526020016005820154815250509050919050565b600e60009054906101000a900473ffffffffffffffffffffffffffffffffffffffff1681565b60026020528060005260406000206000915090508060000160009054906101000a900461ffff16908060000160029054906101000a900461ffff16908060010154908060020154908060030180546110bd906148bf565b80601f01602080910402602001604051908101604052809291908181526020018280546110e9906148bf565b80156111365780601f1061110b57610100808354040283529160200191611136565b820191906000526020600020905b81548152906001019060200180831161111957829003601f168201915b5050505050905085565b60008054906101000a900473ffffffffffffffffffffffffffffffffffffffff1673ffffffffffffffffffffffffffffffffffffffff163373ffffffffffffffffffffffffffffffffffffffff16146111ce576040517f08c379a00000000000000000000000000000000000000000000000000000000081526004016111c590614a86565b60405180910390fd5b6000600260008461ffff168152602001908152602001600020905060008260ff16600260008661ffff168152602001908152602001600020600101546112149190614bd3565b90506064816112239190614c44565b9050600115158515150361124e578082600101546112419190614c75565b8260010181905550611267565b80826001015461125e9190614ca9565b82600101819055505b5050505050565b60001515600660009054906101000a900460ff161515146112c4576040517f08c379a00000000000000000000000000000000000000000000000000000000081526004016112bb90614af2565b60405180910390fd5b6000600360008381526020019081526020016000209050828160010160006101000a81548173ffffffffffffffffffffffffffffffffffffffff021916908373ffffffffffffffffffffffffffffffffffffffff16021790555061133984848460405180602001604052806000815250612343565b50505050565b600d60009054906101000a900473ffffffffffffffffffffffffffffffffffffffff1681565b61136d613ae9565b600260008381526020019081526020016000206040518060a00160405290816000820160009054906101000a900461ffff1661ffff1661ffff1681526020016000820160029054906101000a900461ffff1661ffff1661ffff16815260200160018201548152602001600282015481526020016003820180546113ef906148bf565b80601f016020809104026020016040519081016040528092919081815260200182805461141b906148bf565b80156114685780601f1061143d57610100808354040283529160200191611468565b820191906000526020600020905b81548152906001019060200180831161144b57829003601f168201915b5050505050815250509050919050565b600660019054906101000a900473ffffffffffffffffffffffffffffffffffffffff1673ffffffffffffffffffffffffffffffffffffffff163373ffffffffffffffffffffffffffffffffffffffff1614611508576040517f08c379a00000000000000000000000000000000000000000000000000000000081526004016114ff90614d29565b60405180910390fd5b600060036000838152602001908152602001600020905060008160010160146101000a81548160ff021916908315150217905550600081600201819055505050565b6000806007600084815260200190815260200160002060009054906101000a900473ffffffffffffffffffffffffffffffffffffffff169050600073ffffffffffffffffffffffffffffffffffffffff168173ffffffffffffffffffffffffffffffffffffffff16036115f2576040517f08c379a00000000000000000000000000000000000000000000000000000000081526004016115e990614d95565b60405180910390fd5b80915050919050565b60008054906101000a900473ffffffffffffffffffffffffffffffffffffffff1673ffffffffffffffffffffffffffffffffffffffff163373ffffffffffffffffffffffffffffffffffffffff1614611689576040517f08c379a000000000000000000000000000000000000000000000000000000000815260040161168090614a86565b60405180910390fd5b600083905060005b8861ffff168110156116f1576116cd8787848787868181106116b6576116b5614db5565b5b90506020028101906116c89190614df3565b612613565b8760ff16826116dc9190614c75565b915080806116e990614e56565b915050611691565b505050505050505050565b60008061270f61170a610be3565b6117149190614c75565b905080600f541061175a576040517f08c379a000000000000000000000000000000000000000000000000000000000815260040161175190614eea565b60405180910390fd5b6002600c540361179f576040517f08c379a000000000000000000000000000000000000000000000000000000000815260040161179690614f56565b60405180910390fd5b6002600c819055506000879050600087905060008690506000889050600087905060006002600087815260200190815260200160002060030180546117e3906148bf565b80601f016020809104026020016040519081016040528092919081815260200182805461180f906148bf565b801561185c5780601f106118315761010080835404028352916020019161185c565b820191906000526020600020905b81548152906001019060200180831161183f57829003601f168201915b5050505050905060006002600088815260200190815260200160002060000160009054906101000a900461ffff16905060006002600089815260200190815260200160002060000160029054906101000a900461ffff16905060008660ff16600260008b8152602001908152602001600020600101546118dc9190614bd3565b90506000600260008b815260200190815260200160002060020154905081891461193b576040517f08c379a000000000000000000000000000000000000000000000000000000000815260040161193290614fc2565b60405180910390fd5b60008361ffff1611611982576040517f08c379a00000000000000000000000000000000000000000000000000000000081526004016119799061502e565b60405180910390fd5b8760ff168361ffff1610156119cc576040517f08c379a00000000000000000000000000000000000000000000000000000000081526004016119c39061509a565b60405180910390fd5b60008760ff1603611a6a5760008054906101000a900473ffffffffffffffffffffffffffffffffffffffff1673ffffffffffffffffffffffffffffffffffffffff163373ffffffffffffffffffffffffffffffffffffffff1614611a65576040517f08c379a0000000000000000000000000000000000000000000000000000000008152600401611a5c90615106565b60405180910390fd5b611be9565b60018760ff1603611acb57611ac3600d60009054906101000a900473ffffffffffffffffffffffffffffffffffffffff163360008054906101000a900473ffffffffffffffffffffffffffffffffffffffff1685612f98565b339550611be8565b600073daea92cc30392bf55a5e52a632f3bb90aadd901090506000611af08c8b612943565b905080341015611b35576040517f08c379a0000000000000000000000000000000000000000000000000000000008152600401611b2c90615172565b60405180910390fd5b60008273ffffffffffffffffffffffffffffffffffffffff1634604051611b5b906151c3565b60006040518083038185875af1925050503d8060008114611b98576040519150601f19603f3d011682016040523d82523d6000602084013e611b9d565b606091505b5050905080611be1576040517f08c379a0000000000000000000000000000000000000000000000000000000008152600401611bd890615224565b60405180910390fd5b3398505050505b5b6000600260008c815260200190815260200160002090508860ff168160000160028282829054906101000a900461ffff16611c249190615244565b92506101000a81548161ffff021916908361ffff1602179055506000600190505b8960ff168111611dd4576001600f6000828254611c629190614c75565b92505081905550611c7588600f54613021565b611c81600f54886131fa565b60006040518061010001604052808981526020018a73ffffffffffffffffffffffffffffffffffffffff1681526020016000151581526020018861ffff16815260200160008152602001600f5481526020018681526020018581525090508060036000600f5481526020019081526020016000206000820151816000019081611d0a9190615426565b5060208201518160010160006101000a81548173ffffffffffffffffffffffffffffffffffffffff021916908373ffffffffffffffffffffffffffffffffffffffff16021790555060408201518160010160146101000a81548160ff02191690831515021790555060608201518160010160156101000a81548161ffff021916908361ffff1602179055506080820151816002015560a0820151816003015560c0820151816004015560e08201518160050155905050508080611dcc90614e56565b915050611c45565b5060019c5050505050505050505050506001600c819055505095945050505050565b60008073ffffffffffffffffffffffffffffffffffffffff168273ffffffffffffffffffffffffffffffffffffffff1603611e66576040517f08c379a0000000000000000000000000000000000000000000000000000000008152600401611e5d9061556a565b60405180910390fd5b600860008373ffffffffffffffffffffffffffffffffffffffff1673ffffffffffffffffffffffffffffffffffffffff168152602001908152602001600020549050919050565b600660019054906101000a900473ffffffffffffffffffffffffffffffffffffffff1673ffffffffffffffffffffffffffffffffffffffff163373ffffffffffffffffffffffffffffffffffffffff1614611f3d576040517f08c379a0000000000000000000000000000000000000000000000000000000008152600401611f3490614d29565b60405180910390fd5b600060036000848152602001908152602001600020905060018160010160146101000a81548160ff021916908315150217905550818160020181905550505050565b600660019054906101000a900473ffffffffffffffffffffffffffffffffffffffff1681565b611fb6611fb0612bb7565b82612c9d565b611ff5576040517f08c379a0000000000000000000000000000000000000000000000000000000008152600401611fec90614b84565b60405180910390fd5b600660019054906101000a900473ffffffffffffffffffffffffffffffffffffffff1673ffffffffffffffffffffffffffffffffffffffff163373ffffffffffffffffffffffffffffffffffffffff1614612085576040517f08c379a000000000000000000000000000000000000000000000000000000000815260040161207c90614d29565b60405180910390fd5b612090838383612d32565b505050565b60008054906101000a900473ffffffffffffffffffffffffffffffffffffffff1681565b6060600580546120c8906148bf565b80601f01602080910402602001604051908101604052809291908181526020018280546120f4906148bf565b80156121415780601f1061211657610100808354040283529160200191612141565b820191906000526020600020905b81548152906001019060200180831161212457829003601f168201915b5050505050905090565b600360205280600052604060002060009150905080600001805461216e906148bf565b80601f016020809104026020016040519081016040528092919081815260200182805461219a906148bf565b80156121e75780601f106121bc576101008083540402835291602001916121e7565b820191906000526020600020905b8154815290600101906020018083116121ca57829003601f168201915b5050505050908060010160009054906101000a900473ffffffffffffffffffffffffffffffffffffffff16908060010160149054906101000a900460ff16908060010160159054906101000a900461ffff16908060020154908060030154908060040154908060050154905088565b612268612261612bb7565b8383613267565b5050565b60008054906101000a900473ffffffffffffffffffffffffffffffffffffffff1673ffffffffffffffffffffffffffffffffffffffff163373ffffffffffffffffffffffffffffffffffffffff16146122fa576040517f08c379a00000000000000000000000000000000000000000000000000000000081526004016122f190614a86565b60405180910390fd5b806000806101000a81548173ffffffffffffffffffffffffffffffffffffffff021916908373ffffffffffffffffffffffffffffffffffffffff16021790555050565b600f5481565b60001515600660009054906101000a900460ff16151514612399576040517f08c379a000000000000000000000000000000000000000000000000000000000815260040161239090614af2565b60405180910390fd5b6123aa6123a4612bb7565b83612c9d565b6123e9576040517f08c379a00000000000000000000000000000000000000000000000000000000081526004016123e090614b84565b60405180910390fd5b6000600360008481526020019081526020016000209050838160010160006101000a81548173ffffffffffffffffffffffffffffffffffffffff021916908373ffffffffffffffffffffffffffffffffffffffff16021790555061244f858585856133d3565b5050505050565b60008054906101000a900473ffffffffffffffffffffffffffffffffffffffff1673ffffffffffffffffffffffffffffffffffffffff163373ffffffffffffffffffffffffffffffffffffffff16146124e4576040517f08c379a00000000000000000000000000000000000000000000000000000000081526004016124db90614a86565b60405180910390fd5b80600660006101000a81548160ff02191690831515021790555050565b606061250c82612b6c565b6000600b6000848152602001908152602001600020805461252c906148bf565b80601f0160208091040260200160405190810160405280929190818152602001828054612558906148bf565b80156125a55780601f1061257a576101008083540402835291602001916125a5565b820191906000526020600020905b81548152906001019060200180831161258857829003601f168201915b5050505050905060006125b661342f565b905060008151036125cb57819250505061260e565b6000825111156126005780826040516020016125e89291906155c6565b6040516020818303038152906040529250505061260e565b61260984613446565b925050505b919050565b60008054906101000a900473ffffffffffffffffffffffffffffffffffffffff1673ffffffffffffffffffffffffffffffffffffffff163373ffffffffffffffffffffffffffffffffffffffff16146126a1576040517f08c379a000000000000000000000000000000000000000000000000000000000815260040161269890614a86565b60405180910390fd5b6000670de0b6b3a7640000846126b79190614bd3565b90506040518060a001604052808761ffff1681526020018661ffff168152602001828152602001600154815260200184848080601f016020809104026020016040519081016040528093929190818152602001838380828437600081840152601f19601f8201169050808301925050505050505081525060026000600154815260200190815260200160002060008201518160000160006101000a81548161ffff021916908361ffff16021790555060208201518160000160026101000a81548161ffff021916908361ffff160217905550604082015181600101556060820151816002015560808201518160030190816127b29190615426565b5090505060018060008282546127c89190614c75565b92505081905550505050505050565b60008054906101000a900473ffffffffffffffffffffffffffffffffffffffff1673ffffffffffffffffffffffffffffffffffffffff163373ffffffffffffffffffffffffffffffffffffffff1614612865576040517f08c379a000000000000000000000000000000000000000000000000000000000815260040161285c90614a86565b60405180910390fd5b6000600190505b600154811161293d5760006002600083815260200190815260200160002090508361ffff168160000160009054906101000a900461ffff1661ffff16036129295760008360ff1660026000858152602001908152602001600020600101546128d49190614bd3565b90506064816128e39190614c44565b9050600115158615150361290e578082600101546129019190614c75565b8260010181905550612927565b80826001015461291e9190614ca9565b82600101819055505b505b50808061293590614e56565b91505061286c565b50505050565b600080600e60009054906101000a900473ffffffffffffffffffffffffffffffffffffffff1673ffffffffffffffffffffffffffffffffffffffff16638e15f4736040518163ffffffff1660e01b8152600401602060405180830381865afa1580156129b3573d6000803e3d6000fd5b505050506040513d601f19601f820116820180604052508101906129d79190615620565b90506000670de0b6b3a76400006002600087815260200190815260200160002060010154612a059190614bd3565b90508360ff1681612a169190614bd3565b90506402540be40082612a299190614bd3565b91508181612a379190614c44565b905066038d7ea4c6800081612a4c9190614c44565b905066038d7ea4c6800081612a619190614bd3565b9050809250505092915050565b6000600a60008473ffffffffffffffffffffffffffffffffffffffff1673ffffffffffffffffffffffffffffffffffffffff16815260200190815260200160002060008373ffffffffffffffffffffffffffffffffffffffff1673ffffffffffffffffffffffffffffffffffffffff16815260200190815260200160002060009054906101000a900460ff16905092915050565b60007f01ffc9a7000000000000000000000000000000000000000000000000000000007bffffffffffffffffffffffffffffffffffffffffffffffffffffffff1916827bffffffffffffffffffffffffffffffffffffffffffffffffffffffff1916149050919050565b612b75816134ae565b612bb4576040517f08c379a0000000000000000000000000000000000000000000000000000000008152600401612bab90614d95565b60405180910390fd5b50565b600033905090565b816009600083815260200190815260200160002060006101000a81548173ffffffffffffffffffffffffffffffffffffffff021916908373ffffffffffffffffffffffffffffffffffffffff160217905550808273ffffffffffffffffffffffffffffffffffffffff16612c328361154a565b73ffffffffffffffffffffffffffffffffffffffff167f8c5be1e5ebec7d5bd14f71427d1e84f3dd0314c0f7b2291e5b200ac8c7c3b92560405160405180910390a45050565b80600b60008481526020019081526020016000209081612c989190615426565b505050565b600080612ca98361154a565b90508073ffffffffffffffffffffffffffffffffffffffff168473ffffffffffffffffffffffffffffffffffffffff161480612ceb5750612cea8185612a6e565b5b80612d2957508373ffffffffffffffffffffffffffffffffffffffff16612d1184610a80565b73ffffffffffffffffffffffffffffffffffffffff16145b91505092915050565b8273ffffffffffffffffffffffffffffffffffffffff16612d528261154a565b73ffffffffffffffffffffffffffffffffffffffff1614612da8576040517f08c379a0000000000000000000000000000000000000000000000000000000008152600401612d9f906156bf565b60405180910390fd5b600073ffffffffffffffffffffffffffffffffffffffff168273ffffffffffffffffffffffffffffffffffffffff1603612e17576040517f08c379a0000000000000000000000000000000000000000000000000000000008152600401612e0e90615751565b60405180910390fd5b612e2283838361351a565b612e2d600082612bbf565b6001600860008573ffffffffffffffffffffffffffffffffffffffff1673ffffffffffffffffffffffffffffffffffffffff1681526020019081526020016000206000828254612e7d9190614ca9565b925050819055506001600860008473ffffffffffffffffffffffffffffffffffffffff1673ffffffffffffffffffffffffffffffffffffffff1681526020019081526020016000206000828254612ed49190614c75565b92505081905550816007600083815260200190815260200160002060006101000a81548173ffffffffffffffffffffffffffffffffffffffff021916908373ffffffffffffffffffffffffffffffffffffffff160217905550808273ffffffffffffffffffffffffffffffffffffffff168473ffffffffffffffffffffffffffffffffffffffff167fddf252ad1be2c89b69c2b068fc378daa952ba7f163c4a11628f55a4df523b3ef60405160405180910390a4612f9383838361351f565b505050565b61301b846323b872dd60e01b858585604051602401612fb993929190615771565b604051602081830303815290604052907bffffffffffffffffffffffffffffffffffffffffffffffffffffffff19166020820180517bffffffffffffffffffffffffffffffffffffffffffffffffffffffff8381831617835250505050613524565b50505050565b600073ffffffffffffffffffffffffffffffffffffffff168273ffffffffffffffffffffffffffffffffffffffff1603613090576040517f08c379a0000000000000000000000000000000000000000000000000000000008152600401613087906157f4565b60405180910390fd5b613099816134ae565b156130d9576040517f08c379a00000000000000000000000000000000000000000000000000000000081526004016130d090615860565b60405180910390fd5b6130e56000838361351a565b6001600860008473ffffffffffffffffffffffffffffffffffffffff1673ffffffffffffffffffffffffffffffffffffffff16815260200190815260200160002060008282546131359190614c75565b92505081905550816007600083815260200190815260200160002060006101000a81548173ffffffffffffffffffffffffffffffffffffffff021916908373ffffffffffffffffffffffffffffffffffffffff160217905550808273ffffffffffffffffffffffffffffffffffffffff16600073ffffffffffffffffffffffffffffffffffffffff167fddf252ad1be2c89b69c2b068fc378daa952ba7f163c4a11628f55a4df523b3ef60405160405180910390a46131f66000838361351f565b5050565b613203826134ae565b613242576040517f08c379a0000000000000000000000000000000000000000000000000000000008152600401613239906158f2565b60405180910390fd5b80600b600084815260200190815260200160002090816132629190615426565b505050565b8173ffffffffffffffffffffffffffffffffffffffff168373ffffffffffffffffffffffffffffffffffffffff16036132d5576040517f08c379a00000000000000000000000000000000000000000000000000000000081526004016132cc9061595e565b60405180910390fd5b80600a60008573ffffffffffffffffffffffffffffffffffffffff1673ffffffffffffffffffffffffffffffffffffffff16815260200190815260200160002060008473ffffffffffffffffffffffffffffffffffffffff1673ffffffffffffffffffffffffffffffffffffffff16815260200190815260200160002060006101000a81548160ff0219169083151502179055508173ffffffffffffffffffffffffffffffffffffffff168373ffffffffffffffffffffffffffffffffffffffff167f17307eab39ab6107e8899845ad3d59bd9653f200f220920489ca2b5937696c31836040516133c69190613bd4565b60405180910390a3505050565b6133de848484612d32565b6133ea848484846135eb565b613429576040517f08c379a0000000000000000000000000000000000000000000000000000000008152600401613420906159f0565b60405180910390fd5b50505050565b606060405180602001604052806000815250905090565b606061345182612b6c565b600061345b61342f565b9050600081511161347b57604051806020016040528060008152506134a6565b8061348584613772565b6040516020016134969291906155c6565b6040516020818303038152906040525b915050919050565b60008073ffffffffffffffffffffffffffffffffffffffff166007600084815260200190815260200160002060009054906101000a900473ffffffffffffffffffffffffffffffffffffffff1673ffffffffffffffffffffffffffffffffffffffff1614159050919050565b505050565b505050565b6000613586826040518060400160405280602081526020017f5361666545524332303a206c6f772d6c6576656c2063616c6c206661696c65648152508573ffffffffffffffffffffffffffffffffffffffff166138d29092919063ffffffff16565b90506000815111156135e657808060200190518101906135a69190615a25565b6135e5576040517f08c379a00000000000000000000000000000000000000000000000000000000081526004016135dc90615ac4565b60405180910390fd5b5b505050565b600061360c8473ffffffffffffffffffffffffffffffffffffffff166138ea565b15613765578373ffffffffffffffffffffffffffffffffffffffff1663150b7a02613635612bb7565b8786866040518563ffffffff1660e01b81526004016136579493929190615b39565b6020604051808303816000875af192505050801561369357506040513d601f19601f820116820180604052508101906136909190615b9a565b60015b613715573d80600081146136c3576040519150601f19603f3d011682016040523d82523d6000602084013e6136c8565b606091505b50600081510361370d576040517f08c379a0000000000000000000000000000000000000000000000000000000008152600401613704906159f0565b60405180910390fd5b805181602001fd5b63150b7a0260e01b7bffffffffffffffffffffffffffffffffffffffffffffffffffffffff1916817bffffffffffffffffffffffffffffffffffffffffffffffffffffffff19161491505061376a565b600190505b949350505050565b6060600082036137b9576040518060400160405280600181526020017f300000000000000000000000000000000000000000000000000000000000000081525090506138cd565b600082905060005b600082146137eb5780806137d490614e56565b915050600a826137e49190614c44565b91506137c1565b60008167ffffffffffffffff81111561380757613806613e00565b5b6040519080825280601f01601f1916602001820160405280156138395781602001600182028036833780820191505090505b5090505b600085146138c6576001826138529190614ca9565b9150600a856138619190615bc7565b603061386d9190614c75565b60f81b81838151811061388357613882614db5565b5b60200101907effffffffffffffffffffffffffffffffffffffffffffffffffffffffffffff1916908160001a905350600a856138bf9190614c44565b945061383d565b8093505050505b919050565b60606138e1848460008561390d565b90509392505050565b6000808273ffffffffffffffffffffffffffffffffffffffff163b119050919050565b606082471015613952576040517f08c379a000000000000000000000000000000000000000000000000000000000815260040161394990615c6a565b60405180910390fd5b61395b856138ea565b61399a576040517f08c379a000000000000000000000000000000000000000000000000000000000815260040161399190615cd6565b60405180910390fd5b6000808673ffffffffffffffffffffffffffffffffffffffff1685876040516139c39190615d27565b60006040518083038185875af1925050503d8060008114613a00576040519150601f19603f3d011682016040523d82523d6000602084013e613a05565b606091505b5091509150613a15828286613a21565b92505050949350505050565b60608315613a3157829050613a81565b600083511115613a445782518084602001fd5b816040517f08c379a0000000000000000000000000000000000000000000000000000000008152600401613a789190613c7f565b60405180910390fd5b9392505050565b60405180610100016040528060608152602001600073ffffffffffffffffffffffffffffffffffffffff168152602001600015158152602001600061ffff168152602001600081526020016000815260200160008152602001600081525090565b6040518060a00160405280600061ffff168152602001600061ffff1681526020016000815260200160008152602001606081525090565b6000604051905090565b600080fd5b600080fd5b60007fffffffff0000000000000000000000000000000000000000000000000000000082169050919050565b613b6981613b34565b8114613b7457600080fd5b50565b600081359050613b8681613b60565b92915050565b600060208284031215613ba257613ba1613b2a565b5b6000613bb084828501613b77565b91505092915050565b60008115159050919050565b613bce81613bb9565b82525050565b6000602082019050613be96000830184613bc5565b92915050565b600081519050919050565b600082825260208201905092915050565b60005b83811015613c29578082015181840152602081019050613c0e565b60008484015250505050565b6000601f19601f8301169050919050565b6000613c5182613bef565b613c5b8185613bfa565b9350613c6b818560208601613c0b565b613c7481613c35565b840191505092915050565b60006020820190508181036000830152613c998184613c46565b905092915050565b6000819050919050565b613cb481613ca1565b8114613cbf57600080fd5b50565b600081359050613cd181613cab565b92915050565b600060208284031215613ced57613cec613b2a565b5b6000613cfb84828501613cc2565b91505092915050565b600073ffffffffffffffffffffffffffffffffffffffff82169050919050565b6000613d2f82613d04565b9050919050565b613d3f81613d24565b82525050565b6000602082019050613d5a6000830184613d36565b92915050565b613d6981613d24565b8114613d7457600080fd5b50565b600081359050613d8681613d60565b92915050565b60008060408385031215613da357613da2613b2a565b5b6000613db185828601613d77565b9250506020613dc285828601613cc2565b9150509250929050565b613dd581613ca1565b82525050565b6000602082019050613df06000830184613dcc565b92915050565b600080fd5b600080fd5b7f4e487b7100000000000000000000000000000000000000000000000000000000600052604160045260246000fd5b613e3882613c35565b810181811067ffffffffffffffff82111715613e5757613e56613e00565b5b80604052505050565b6000613e6a613b20565b9050613e768282613e2f565b919050565b600067ffffffffffffffff821115613e9657613e95613e00565b5b613e9f82613c35565b9050602081019050919050565b82818337600083830152505050565b6000613ece613ec984613e7b565b613e60565b905082815260208101848484011115613eea57613ee9613dfb565b5b613ef5848285613eac565b509392505050565b600082601f830112613f1257613f11613df6565b5b8135613f22848260208601613ebb565b91505092915050565b60008060408385031215613f4257613f41613b2a565b5b6000613f5085828601613cc2565b925050602083013567ffffffffffffffff811115613f7157613f70613b2f565b5b613f7d85828601613efd565b9150509250929050565b600060208284031215613f9d57613f9c613b2a565b5b6000613fab84828501613d77565b91505092915050565b600080600060608486031215613fcd57613fcc613b2a565b5b6000613fdb86828701613d77565b9350506020613fec86828701613d77565b9250506040613ffd86828701613cc2565b9150509250925092565b600082825260208201905092915050565b600061402382613bef565b61402d8185614007565b935061403d818560208601613c0b565b61404681613c35565b840191505092915050565b61405a81613d24565b82525050565b61406981613bb9565b82525050565b600061ffff82169050919050565b6140868161406f565b82525050565b61409581613ca1565b82525050565b60006101008301600083015184820360008601526140b98282614018565b91505060208301516140ce6020860182614051565b5060408301516140e16040860182614060565b5060608301516140f4606086018261407d565b506080830151614107608086018261408c565b5060a083015161411a60a086018261408c565b5060c083015161412d60c086018261408c565b5060e083015161414060e086018261408c565b508091505092915050565b60006020820190508181036000830152614165818461409b565b905092915050565b6141768161406f565b82525050565b600060a082019050614191600083018861416d565b61419e602083018761416d565b6141ab6040830186613dcc565b6141b86060830185613dcc565b81810360808301526141ca8184613c46565b90509695505050505050565b6141df81613bb9565b81146141ea57600080fd5b50565b6000813590506141fc816141d6565b92915050565b61420b8161406f565b811461421657600080fd5b50565b60008135905061422881614202565b92915050565b600060ff82169050919050565b6142448161422e565b811461424f57600080fd5b50565b6000813590506142618161423b565b92915050565b6000806000606084860312156142805761427f613b2a565b5b600061428e868287016141ed565b935050602061429f86828701614219565b92505060406142b086828701614252565b9150509250925092565b600060a0830160008301516142d2600086018261407d565b5060208301516142e5602086018261407d565b5060408301516142f8604086018261408c565b50606083015161430b606086018261408c565b50608083015184820360808601526143238282614018565b9150508091505092915050565b6000602082019050818103600083015261434a81846142ba565b905092915050565b600080fd5b600080fd5b60008083601f84011261437257614371613df6565b5b8235905067ffffffffffffffff81111561438f5761438e614352565b5b6020830191508360208202830111156143ab576143aa614357565b5b9250929050565b600080600080600080600060c0888a0312156143d1576143d0613b2a565b5b60006143df8a828b01614219565b97505060206143f08a828b01614252565b96505060406144018a828b01614219565b95505060606144128a828b01614219565b94505060806144238a828b01613cc2565b93505060a088013567ffffffffffffffff81111561444457614443613b2f565b5b6144508a828b0161435c565b925092505092959891949750929550565b600080600080600060a0868803121561447d5761447c613b2a565b5b600061448b88828901613cc2565b955050602061449c88828901613cc2565b94505060406144ad88828901614252565b93505060606144be88828901614252565b92505060806144cf88828901613d77565b9150509295509295909350565b600080604083850312156144f3576144f2613b2a565b5b600061450185828601613cc2565b925050602061451285828601613cc2565b9150509250929050565b6000610100820190508181036000830152614537818b613c46565b9050614546602083018a613d36565b6145536040830189613bc5565b614560606083018861416d565b61456d6080830187613dcc565b61457a60a0830186613dcc565b61458760c0830185613dcc565b61459460e0830184613dcc565b9998505050505050505050565b600080604083850312156145b8576145b7613b2a565b5b60006145c685828601613d77565b92505060206145d7858286016141ed565b9150509250929050565b600067ffffffffffffffff8211156145fc576145fb613e00565b5b61460582613c35565b9050602081019050919050565b6000614625614620846145e1565b613e60565b90508281526020810184848401111561464157614640613dfb565b5b61464c848285613eac565b509392505050565b600082601f83011261466957614668613df6565b5b8135614679848260208601614612565b91505092915050565b6000806000806080858703121561469c5761469b613b2a565b5b60006146aa87828801613d77565b94505060206146bb87828801613d77565b93505060406146cc87828801613cc2565b925050606085013567ffffffffffffffff8111156146ed576146ec613b2f565b5b6146f987828801614654565b91505092959194509250565b60006020828403121561471b5761471a613b2a565b5b6000614729848285016141ed565b91505092915050565b60008083601f84011261474857614747613df6565b5b8235905067ffffffffffffffff81111561476557614764614352565b5b60208301915083600182028301111561478157614780614357565b5b9250929050565b6000806000806000608086880312156147a4576147a3613b2a565b5b60006147b288828901614219565b95505060206147c388828901614219565b94505060406147d488828901613cc2565b935050606086013567ffffffffffffffff8111156147f5576147f4613b2f565b5b61480188828901614732565b92509250509295509295909350565b6000806040838503121561482757614826613b2a565b5b600061483585828601613cc2565b925050602061484685828601614252565b9150509250929050565b6000806040838503121561486757614866613b2a565b5b600061487585828601613d77565b925050602061488685828601613d77565b9150509250929050565b7f4e487b7100000000000000000000000000000000000000000000000000000000600052602260045260246000fd5b600060028204905060018216806148d757607f821691505b6020821081036148ea576148e9614890565b5b50919050565b7f4552433732313a20617070726f76616c20746f2063757272656e74206f776e6560008201527f7200000000000000000000000000000000000000000000000000000000000000602082015250565b600061494c602183613bfa565b9150614957826148f0565b604082019050919050565b6000602082019050818103600083015261497b8161493f565b9050919050565b7f4552433732313a20617070726f76652063616c6c6572206973206e6f7420746f60008201527f6b656e206f776e6572206e6f7220617070726f76656420666f7220616c6c0000602082015250565b60006149de603e83613bfa565b91506149e982614982565b604082019050919050565b60006020820190508181036000830152614a0d816149d1565b9050919050565b7f596f7520617265206e6f7420746865206f776e6572206f66207468697320636f60008201527f6e74726163740000000000000000000000000000000000000000000000000000602082015250565b6000614a70602683613bfa565b9150614a7b82614a14565b604082019050919050565b60006020820190508181036000830152614a9f81614a63565b9050919050565b7f5472616e73666572206973206c6f636b206e6f77000000000000000000000000600082015250565b6000614adc601483613bfa565b9150614ae782614aa6565b602082019050919050565b60006020820190508181036000830152614b0b81614acf565b9050919050565b7f4552433732313a2063616c6c6572206973206e6f7420746f6b656e206f776e6560008201527f72206e6f7220617070726f766564000000000000000000000000000000000000602082015250565b6000614b6e602e83613bfa565b9150614b7982614b12565b604082019050919050565b60006020820190508181036000830152614b9d81614b61565b9050919050565b7f4e487b7100000000000000000000000000000000000000000000000000000000600052601160045260246000fd5b6000614bde82613ca1565b9150614be983613ca1565b9250828202614bf781613ca1565b91508282048414831517614c0e57614c0d614ba4565b5b5092915050565b7f4e487b7100000000000000000000000000000000000000000000000000000000600052601260045260246000fd5b6000614c4f82613ca1565b9150614c5a83613ca1565b925082614c6a57614c69614c15565b5b828204905092915050565b6000614c8082613ca1565b9150614c8b83613ca1565b9250828201905080821115614ca357614ca2614ba4565b5b92915050565b6000614cb482613ca1565b9150614cbf83613ca1565b9250828203905081811115614cd757614cd6614ba4565b5b92915050565b7f54686973206973206e6f74207374616b65206164647265737300000000000000600082015250565b6000614d13601983613bfa565b9150614d1e82614cdd565b602082019050919050565b60006020820190508181036000830152614d4281614d06565b9050919050565b7f4552433732313a20696e76616c696420746f6b656e2049440000000000000000600082015250565b6000614d7f601883613bfa565b9150614d8a82614d49565b602082019050919050565b60006020820190508181036000830152614dae81614d72565b9050919050565b7f4e487b7100000000000000000000000000000000000000000000000000000000600052603260045260246000fd5b600080fd5b600080fd5b600080fd5b60008083356001602003843603038112614e1057614e0f614de4565b5b80840192508235915067ffffffffffffffff821115614e3257614e31614de9565b5b602083019250600182023603831315614e4e57614e4d614dee565b5b509250929050565b6000614e6182613ca1565b91507fffffffffffffffffffffffffffffffffffffffffffffffffffffffffffffffff8203614e9357614e92614ba4565b5b600182019050919050565b7f546f74616c537570706c79457200000000000000000000000000000000000000600082015250565b6000614ed4600d83613bfa565b9150614edf82614e9e565b602082019050919050565b60006020820190508181036000830152614f0381614ec7565b9050919050565b7f5265656e7472616e637947756172643a207265656e7472616e742063616c6c00600082015250565b6000614f40601f83613bfa565b9150614f4b82614f0a565b602082019050919050565b60006020820190508181036000830152614f6f81614f33565b9050919050565b7f616d6f756e740000000000000000000000000000000000000000000000000000600082015250565b6000614fac600683613bfa565b9150614fb782614f76565b602082019050919050565b60006020820190508181036000830152614fdb81614f9f565b9050919050565b7f73746f636b000000000000000000000000000000000000000000000000000000600082015250565b6000615018600583613bfa565b915061502382614fe2565b602082019050919050565b600060208201905081810360008301526150478161500b565b9050919050565b7f617661696c61626c650000000000000000000000000000000000000000000000600082015250565b6000615084600983613bfa565b915061508f8261504e565b602082019050919050565b600060208201905081810360008301526150b381615077565b9050919050565b7f6f6e6c794f776e65720000000000000000000000000000000000000000000000600082015250565b60006150f0600983613bfa565b91506150fb826150ba565b602082019050919050565b6000602082019050818103600083015261511f816150e3565b9050919050565b7f74686973206973206e6f74206e66742070726963650000000000000000000000600082015250565b600061515c601583613bfa565b915061516782615126565b602082019050919050565b6000602082019050818103600083015261518b8161514f565b9050919050565b600081905092915050565b50565b60006151ad600083615192565b91506151b88261519d565b600082019050919050565b60006151ce826151a0565b9150819050919050565b7f4661696c656420746f2073656e64204574686572000000000000000000000000600082015250565b600061520e601483613bfa565b9150615219826151d8565b602082019050919050565b6000602082019050818103600083015261523d81615201565b9050919050565b600061524f8261406f565b915061525a8361406f565b9250828203905061ffff81111561527457615273614ba4565b5b92915050565b60008190508160005260206000209050919050565b60006020601f8301049050919050565b600082821b905092915050565b6000600883026152dc7fffffffffffffffffffffffffffffffffffffffffffffffffffffffffffffffff8261529f565b6152e6868361529f565b95508019841693508086168417925050509392505050565b6000819050919050565b600061532361531e61531984613ca1565b6152fe565b613ca1565b9050919050565b6000819050919050565b61533d83615308565b6153516153498261532a565b8484546152ac565b825550505050565b600090565b615366615359565b615371818484615334565b505050565b5b818110156153955761538a60008261535e565b600181019050615377565b5050565b601f8211156153da576153ab8161527a565b6153b48461528f565b810160208510156153c3578190505b6153d76153cf8561528f565b830182615376565b50505b505050565b600082821c905092915050565b60006153fd600019846008026153df565b1980831691505092915050565b600061541683836153ec565b9150826002028217905092915050565b61542f82613bef565b67ffffffffffffffff81111561544857615447613e00565b5b61545282546148bf565b61545d828285615399565b600060209050601f831160018114615490576000841561547e578287015190505b615488858261540a565b8655506154f0565b601f19841661549e8661527a565b60005b828110156154c6578489015182556001820191506020850194506020810190506154a1565b868310156154e357848901516154df601f8916826153ec565b8355505b6001600288020188555050505b505050505050565b7f4552433732313a2061646472657373207a65726f206973206e6f74206120766160008201527f6c6964206f776e65720000000000000000000000000000000000000000000000602082015250565b6000615554602983613bfa565b915061555f826154f8565b604082019050919050565b6000602082019050818103600083015261558381615547565b9050919050565b600081905092915050565b60006155a082613bef565b6155aa818561558a565b93506155ba818560208601613c0b565b80840191505092915050565b60006155d28285615595565b91506155de8284615595565b91508190509392505050565b6000819050919050565b6155fd816155ea565b811461560857600080fd5b50565b60008151905061561a816155f4565b92915050565b60006020828403121561563657615635613b2a565b5b60006156448482850161560b565b91505092915050565b7f4552433732313a207472616e736665722066726f6d20696e636f72726563742060008201527f6f776e6572000000000000000000000000000000000000000000000000000000602082015250565b60006156a9602583613bfa565b91506156b48261564d565b604082019050919050565b600060208201905081810360008301526156d88161569c565b9050919050565b7f4552433732313a207472616e7366657220746f20746865207a65726f2061646460008201527f7265737300000000000000000000000000000000000000000000000000000000602082015250565b600061573b602483613bfa565b9150615746826156df565b604082019050919050565b6000602082019050818103600083015261576a8161572e565b9050919050565b60006060820190506157866000830186613d36565b6157936020830185613d36565b6157a06040830184613dcc565b949350505050565b7f4552433732313a206d696e7420746f20746865207a65726f2061646472657373600082015250565b60006157de602083613bfa565b91506157e9826157a8565b602082019050919050565b6000602082019050818103600083015261580d816157d1565b9050919050565b7f4552433732313a20746f6b656e20616c7265616479206d696e74656400000000600082015250565b600061584a601c83613bfa565b915061585582615814565b602082019050919050565b600060208201905081810360008301526158798161583d565b9050919050565b7f45524337323155524953746f726167653a2055524920736574206f66206e6f6e60008201527f6578697374656e7420746f6b656e000000000000000000000000000000000000602082015250565b60006158dc602e83613bfa565b91506158e782615880565b604082019050919050565b6000602082019050818103600083015261590b816158cf565b9050919050565b7f4552433732313a20617070726f766520746f2063616c6c657200000000000000600082015250565b6000615948601983613bfa565b915061595382615912565b602082019050919050565b600060208201905081810360008301526159778161593b565b9050919050565b7f4552433732313a207472616e7366657220746f206e6f6e20455243373231526560008201527f63656976657220696d706c656d656e7465720000000000000000000000000000602082015250565b60006159da603283613bfa565b91506159e58261597e565b604082019050919050565b60006020820190508181036000830152615a09816159cd565b9050919050565b600081519050615a1f816141d6565b92915050565b600060208284031215615a3b57615a3a613b2a565b5b6000615a4984828501615a10565b91505092915050565b7f5361666545524332303a204552433230206f7065726174696f6e20646964206e60008201527f6f74207375636365656400000000000000000000000000000000000000000000602082015250565b6000615aae602a83613bfa565b9150615ab982615a52565b604082019050919050565b60006020820190508181036000830152615add81615aa1565b9050919050565b600081519050919050565b600082825260208201905092915050565b6000615b0b82615ae4565b615b158185615aef565b9350615b25818560208601613c0b565b615b2e81613c35565b840191505092915050565b6000608082019050615b4e6000830187613d36565b615b5b6020830186613d36565b615b686040830185613dcc565b8181036060830152615b7a8184615b00565b905095945050505050565b600081519050615b9481613b60565b92915050565b600060208284031215615bb057615baf613b2a565b5b6000615bbe84828501615b85565b91505092915050565b6000615bd282613ca1565b9150615bdd83613ca1565b925082615bed57615bec614c15565b5b828206905092915050565b7f416464726573733a20696e73756666696369656e742062616c616e636520666f60008201527f722063616c6c0000000000000000000000000000000000000000000000000000602082015250565b6000615c54602683613bfa565b9150615c5f82615bf8565b604082019050919050565b60006020820190508181036000830152615c8381615c47565b9050919050565b7f416464726573733a2063616c6c20746f206e6f6e2d636f6e7472616374000000600082015250565b6000615cc0601d83613bfa565b9150615ccb82615c8a565b602082019050919050565b60006020820190508181036000830152615cef81615cb3565b9050919050565b6000615d0182615ae4565b615d0b8185615192565b9350615d1b818560208601613c0b565b80840191505092915050565b6000615d338284615cf6565b91508190509291505056fea2646970667358221220d55cc33432357e92164bf0e0bbf51370c10dd257988c6a8bfcf3f81d3c9f373464736f6c63430008110033",
  "immutableReferences": {},
  "source": "// SPDX-License-Identifier: MIT\npragma solidity ^0.8.0;\n\nimport \"@openzeppelin/contracts/token/ERC721/extensions/ERC721URIStorage.sol\";\nimport \"@openzeppelin/contracts/security/ReentrancyGuard.sol\";\nimport \"@openzeppelin/contracts/token/ERC20/utils/SafeERC20.sol\";\nimport \"./IPriceFeed.sol\";\n\n\ncontract MintNft is ERC721URIStorage, ReentrancyGuard {\n    using SafeERC20 for IERC20;\n    address public BUSD;\n    address public ChainLinkPriceFeed;\n    uint256 public _tokenIds;\n\n    constructor() ERC721(\"SpaceSix\", \"SCX\") {\n        owner = msg.sender;\n        _tokenIds = 9999;\n        BUSD = 0xe9e7CEA3DedcA5984780Bafc599bD69ADd087D56;\n        ChainLinkPriceFeed = 0x40Bb32Cf53EC527C2FDd8Dca67Bb88385DB53021;\n    }\n\n    \n    modifier totalSupplyCheck() {\n        uint256 totalNfts = totalSupply() + 9999;\n        require(_tokenIds < totalNfts , \"TotalSupplyEr\");\n        _;\n    }\n\n    function mintNFT(\n        uint256 _currentId,\n        uint256 _amount,\n        uint8 _type,\n        uint8 _howMany,\n        address _nftOwner\n    ) external payable totalSupplyCheck nonReentrant returns (bool) {\n        uint256 currentId = _currentId;\n        uint256 amount = _amount;\n        uint8 howMany = _howMany;\n        uint8 s_type = _type;\n        address nftOwner = _nftOwner;\n        string memory metaData = AllNfts[currentId].metaData;\n        uint16 level = AllNfts[currentId].level;\n        uint16 count = AllNfts[currentId].count;\n        uint256 finalAmount = AllNfts[currentId].amount * howMany;\n        uint256 tokenId = AllNfts[currentId].tokenId;\n        \n\n        require(amount == finalAmount, \"amount\");\n        require(count > 0, \"stock\");\n        require(count >= howMany, \"available\");\n\n        if (s_type == 0) {\n            require(msg.sender == owner ,\"onlyOwner\");\n        }else if (s_type == 1){\n            SafeERC20.safeTransferFrom(IERC20(BUSD), msg.sender, owner, finalAmount);\n            nftOwner = msg.sender;\n        }else {\n            address ownerAddress = payable(0xDaeA92cc30392Bf55a5E52a632f3BB90AaDD9010);\n            uint bnbPrice = toBnbPrice(currentId ,howMany);\n            require(msg.value >= bnbPrice , \"this is not nft price\");\n            (bool sent,) = ownerAddress.call{value: msg.value}(\"\");\n            require(sent, \"Failed to send Ether\");\n            nftOwner = msg.sender;\n        }\n\n        EachNFT storage currentItem = AllNfts[currentId];\n        currentItem.count -= howMany;\n\n        for (uint256 i = 1; i <= howMany; i++) {\n            _tokenIds += 1;\n            _mint(nftOwner, _tokenIds);\n            _setTokenURI(_tokenIds, metaData);\n\n            Transaction memory newTransaction = Transaction(\n                metaData,\n                nftOwner,\n                false,\n                level,\n                0,\n                _tokenIds,\n                finalAmount,\n                tokenId\n            );\n\n            transactions[_tokenIds] = newTransaction;\n        }\n        return true;\n    }\n\n\n    function toBnbPrice(uint256 _tokenId , uint8 _howMany) public view returns(uint) {\n        uint bnb = uint(IPriceFeed(ChainLinkPriceFeed).getLatestPrice());\n        uint nftPrice = AllNfts[_tokenId].amount * 10**18;\n        nftPrice = nftPrice * _howMany;\n        bnb = bnb * 10 ** 10;\n        nftPrice = nftPrice / bnb;\n        nftPrice = nftPrice / 10**15;\n        nftPrice = nftPrice * 10**15;\n        return nftPrice;\n    }\n\n    function updateTokenURI(uint256 _tokenId, string memory _tokenURI) public onlyOwner {\n        _updateTokenURI(_tokenId, _tokenURI);\n    }\n\n    function changeTransferLock(bool _change) public onlyOwner {\n        _transferLock = _change;\n    }\n\n    function setStakeAddress(address _stakeAddress) public onlyOwner {\n        require(stakeAddress == address(0));\n        stakeAddress = _stakeAddress;\n    }\n\n    function stake(uint256 _tokenId , uint256 _endTime) public {\n        require (msg.sender == stakeAddress , \"This is not stake address\");\n        Transaction storage currentItem = transactions[_tokenId];\n        currentItem.didStake = true;\n        currentItem.stakedTime = _endTime;\n    }\n\n\n    function unStake(uint256 _tokenId) public {\n        require (msg.sender == stakeAddress , \"This is not stake address\");\n        Transaction storage currentItem = transactions[_tokenId];\n        currentItem.didStake = false;\n        currentItem.stakedTime = 0;\n    }\n\n    function totalSupply() public pure returns (uint256) {\n        return 1255;\n    }\n\n    function getNFT(uint256 _tokenid) external view returns(EachNFT memory){\n        return AllNfts[_tokenid];\n    }\n\n    function getTransaction(uint256 _tokenid) external view returns(Transaction memory){\n        return transactions[_tokenid];\n    }\n\n}\n\n\n\n",
  "sourcePath": "/Users/istore/Desktop/Blockchain Projects/Space six/Develop/SpaceSix_Contracts2/contracts/MintNft.sol",
  "compiler": {
    "name": "solc",
    "version": "0.8.17+commit.8df45f5f.Emscripten.clang"
  },
  "schemaVersion": "3.4.3",
  "updatedAt": "2022-11-18T12:30:26.650Z",
  "networkType": "ethereum",
  "devdoc": {
    "kind": "dev",
    "methods": {
      "approve(address,uint256)": {
        "details": "See {IERC721-approve}."
      },
      "balanceOf(address)": {
        "details": "See {IERC721-balanceOf}."
      },
      "getApproved(uint256)": {
        "details": "See {IERC721-getApproved}."
      },
      "isApprovedForAll(address,address)": {
        "details": "See {IERC721-isApprovedForAll}."
      },
      "name()": {
        "details": "See {IERC721Metadata-name}."
      },
      "ownerOf(uint256)": {
        "details": "See {IERC721-ownerOf}."
      },
      "safeTransferFrom(address,address,uint256)": {
        "details": "See {IERC721-safeTransferFrom}."
      },
      "safeTransferFrom(address,address,uint256,bytes)": {
        "details": "See {IERC721-safeTransferFrom}."
      },
      "setApprovalForAll(address,bool)": {
        "details": "See {IERC721-setApprovalForAll}."
      },
      "supportsInterface(bytes4)": {
        "details": "See {IERC165-supportsInterface}."
      },
      "symbol()": {
        "details": "See {IERC721Metadata-symbol}."
      },
      "tokenURI(uint256)": {
        "details": "See {IERC721Metadata-tokenURI}."
      },
      "transferFrom(address,address,uint256)": {
        "details": "See {IERC721-transferFrom}."
      }
    },
    "version": 1
  },
  "userdoc": {
    "kind": "user",
    "methods": {},
    "version": 1
  }
}