{
  "contractName": "Stake",
  "abi": [
    {
      "inputs": [
        {
          "internalType": "address",
          "name": "_mintNft",
          "type": "address"
        }
      ],
      "stateMutability": "nonpayable",
      "type": "constructor"
    },
    {
      "inputs": [
        {
          "internalType": "uint256",
          "name": "",
          "type": "uint256"
        }
      ],
      "name": "Stakers",
      "outputs": [
        {
          "internalType": "address",
          "name": "nftOwner",
          "type": "address"
        },
        {
          "internalType": "bool",
          "name": "didEnd",
          "type": "bool"
        },
        {
          "internalType": "uint256",
          "name": "tokenId",
          "type": "uint256"
        },
        {
          "internalType": "uint256",
          "name": "endTime",
          "type": "uint256"
        },
        {
          "internalType": "uint256",
          "name": "fullStaked",
          "type": "uint256"
        }
      ],
      "stateMutability": "view",
      "type": "function",
      "constant": true
    },
    {
      "inputs": [
        {
          "internalType": "uint256",
          "name": "",
          "type": "uint256"
        }
      ],
      "name": "times",
      "outputs": [
        {
          "internalType": "uint256",
          "name": "",
          "type": "uint256"
        }
      ],
      "stateMutability": "view",
      "type": "function",
      "constant": true
    },
    {
      "inputs": [
        {
          "internalType": "uint256",
          "name": "_tokenId",
          "type": "uint256"
        },
        {
          "internalType": "uint8",
          "name": "_selectTime",
          "type": "uint8"
        }
      ],
      "name": "stake",
      "outputs": [],
      "stateMutability": "nonpayable",
      "type": "function"
    },
    {
      "inputs": [
        {
          "internalType": "uint256",
          "name": "_tokenId",
          "type": "uint256"
        }
      ],
      "name": "unStake",
      "outputs": [],
      "stateMutability": "nonpayable",
      "type": "function"
    }
  ],
  "bytecode": "0x60806040523480156200001157600080fd5b5060405162000ef238038062000ef28339818101604052810190620000379190620001a7565b600160008190555080600260006101000a81548173ffffffffffffffffffffffffffffffffffffffff021916908373ffffffffffffffffffffffffffffffffffffffff160217905550604051806060016040528062784ce063ffffffff16815260200162f099c063ffffffff1681526020016301e1338063ffffffff168152506003906003620000c9929190620000d1565b5050620001d9565b82600381019282156200010b579160200282015b828111156200010a578251829063ffffffff16905591602001919060010190620000e5565b5b5090506200011a91906200011e565b5090565b5b80821115620001395760008160009055506001016200011f565b5090565b600080fd5b600073ffffffffffffffffffffffffffffffffffffffff82169050919050565b60006200016f8262000142565b9050919050565b620001818162000162565b81146200018d57600080fd5b50565b600081519050620001a18162000176565b92915050565b600060208284031215620001c057620001bf6200013d565b5b6000620001d08482850162000190565b91505092915050565b610d0980620001e96000396000f3fe608060405234801561001057600080fd5b506004361061004c5760003560e01c806310087fb11461005157806320982bce1461006d5780635d3eea911461009d5780638c2f6887146100b9575b600080fd5b61006b6004803603810190610066919061088e565b6100ed565b005b610087600480360381019061008291906108ce565b61045f565b604051610094919061090a565b60405180910390f35b6100b760048036038101906100b291906108ce565b61047a565b005b6100d360048036038101906100ce91906108ce565b6107b7565b6040516100e4959493929190610981565b60405180910390f35b600260005403610132576040517f08c379a000000000000000000000000000000000000000000000000000000000815260040161012990610a31565b60405180910390fd5b60026000819055506000600660008481526020019081526020016000209050600060038360ff166003811061016a57610169610a51565b5b0154826003015461017b9190610aaf565b90506301e133808111156101c4576040517f08c379a00000000000000000000000000000000000000000000000000000000081526004016101bb90610b2f565b60405180910390fd5b600060038460ff16600381106101dd576101dc610a51565b5b0154426101ea9190610aaf565b9050600260009054906101000a900473ffffffffffffffffffffffffffffffffffffffff1673ffffffffffffffffffffffffffffffffffffffff16638bafd9353330886040518463ffffffff1660e01b815260040161024b93929190610b4f565b600060405180830381600087803b15801561026557600080fd5b505af1158015610279573d6000803e3d6000fd5b50505050600260009054906101000a900473ffffffffffffffffffffffffffffffffffffffff16600160006101000a81548173ffffffffffffffffffffffffffffffffffffffff021916908373ffffffffffffffffffffffffffffffffffffffff160217905550600160009054906101000a900473ffffffffffffffffffffffffffffffffffffffff1673ffffffffffffffffffffffffffffffffffffffff16637b0472f086836040518363ffffffff1660e01b815260040161033d929190610b86565b600060405180830381600087803b15801561035757600080fd5b505af115801561036b573d6000803e3d6000fd5b5050505060006040518060a001604052803373ffffffffffffffffffffffffffffffffffffffff168152602001600015158152602001878152602001838152602001848152509050806006600088815260200190815260200160002060008201518160000160006101000a81548173ffffffffffffffffffffffffffffffffffffffff021916908373ffffffffffffffffffffffffffffffffffffffff16021790555060208201518160000160146101000a81548160ff0219169083151502179055506040820151816001015560608201518160020155608082015181600301559050505050505060016000819055505050565b6003816003811061046f57600080fd5b016000915090505481565b6002600054036104bf576040517f08c379a00000000000000000000000000000000000000000000000000000000081526004016104b690610a31565b60405180910390fd5b6002600081905550600060066000838152602001908152602001600020905060008160000160009054906101000a900473ffffffffffffffffffffffffffffffffffffffff169050600082600201549050600042905081811015610558576040517f08c379a000000000000000000000000000000000000000000000000000000000815260040161054f90610c21565b60405180910390fd5b3373ffffffffffffffffffffffffffffffffffffffff168373ffffffffffffffffffffffffffffffffffffffff16146105c6576040517f08c379a00000000000000000000000000000000000000000000000000000000081526004016105bd90610cb3565b60405180910390fd5b60008460000160006101000a81548173ffffffffffffffffffffffffffffffffffffffff021916908373ffffffffffffffffffffffffffffffffffffffff16021790555060018460000160146101000a81548160ff021916908315150217905550600260009054906101000a900473ffffffffffffffffffffffffffffffffffffffff16600160006101000a81548173ffffffffffffffffffffffffffffffffffffffff021916908373ffffffffffffffffffffffffffffffffffffffff160217905550600160009054906101000a900473ffffffffffffffffffffffffffffffffffffffff1673ffffffffffffffffffffffffffffffffffffffff16635d3eea91866040518263ffffffff1660e01b81526004016106e5919061090a565b600060405180830381600087803b1580156106ff57600080fd5b505af1158015610713573d6000803e3d6000fd5b50505050600260009054906101000a900473ffffffffffffffffffffffffffffffffffffffff1673ffffffffffffffffffffffffffffffffffffffff16638bafd9353033886040518463ffffffff1660e01b815260040161077693929190610b4f565b600060405180830381600087803b15801561079057600080fd5b505af11580156107a4573d6000803e3d6000fd5b5050505050505050600160008190555050565b60066020528060005260406000206000915090508060000160009054906101000a900473ffffffffffffffffffffffffffffffffffffffff16908060000160149054906101000a900460ff16908060010154908060020154908060030154905085565b600080fd5b6000819050919050565b6108328161081f565b811461083d57600080fd5b50565b60008135905061084f81610829565b92915050565b600060ff82169050919050565b61086b81610855565b811461087657600080fd5b50565b60008135905061088881610862565b92915050565b600080604083850312156108a5576108a461081a565b5b60006108b385828601610840565b92505060206108c485828601610879565b9150509250929050565b6000602082840312156108e4576108e361081a565b5b60006108f284828501610840565b91505092915050565b6109048161081f565b82525050565b600060208201905061091f60008301846108fb565b92915050565b600073ffffffffffffffffffffffffffffffffffffffff82169050919050565b600061095082610925565b9050919050565b61096081610945565b82525050565b60008115159050919050565b61097b81610966565b82525050565b600060a0820190506109966000830188610957565b6109a36020830187610972565b6109b060408301866108fb565b6109bd60608301856108fb565b6109ca60808301846108fb565b9695505050505050565b600082825260208201905092915050565b7f5265656e7472616e637947756172643a207265656e7472616e742063616c6c00600082015250565b6000610a1b601f836109d4565b9150610a26826109e5565b602082019050919050565b60006020820190508181036000830152610a4a81610a0e565b9050919050565b7f4e487b7100000000000000000000000000000000000000000000000000000000600052603260045260246000fd5b7f4e487b7100000000000000000000000000000000000000000000000000000000600052601160045260246000fd5b6000610aba8261081f565b9150610ac58361081f565b9250828201905080821115610add57610adc610a80565b5b92915050565b7f46756c6c5374616b656400000000000000000000000000000000000000000000600082015250565b6000610b19600a836109d4565b9150610b2482610ae3565b602082019050919050565b60006020820190508181036000830152610b4881610b0c565b9050919050565b6000606082019050610b646000830186610957565b610b716020830185610957565b610b7e60408301846108fb565b949350505050565b6000604082019050610b9b60008301856108fb565b610ba860208301846108fb565b9392505050565b7f596f752063616e20756e7374616b6520796f7572206e6674206174207468697360008201527f2074696d65000000000000000000000000000000000000000000000000000000602082015250565b6000610c0b6025836109d4565b9150610c1682610baf565b604082019050919050565b60006020820190508181036000830152610c3a81610bfe565b9050919050565b7f596f7520617265206e6f7420746865206f776e6572206f662074686973206e6660008201527f7400000000000000000000000000000000000000000000000000000000000000602082015250565b6000610c9d6021836109d4565b9150610ca882610c41565b604082019050919050565b60006020820190508181036000830152610ccc81610c90565b905091905056fea26469706673582212201813010f61ce719feb34737f141b185eecb9523c3ad4e6b0f6bdd5e19dee3ce064736f6c63430008110033",
  "immutableReferences": {},
  "source": "// SPDX-License-Identifier: MIT\npragma solidity ^0.8.0;\n\nimport \"@openzeppelin/contracts/token/ERC721/extensions/ERC721URIStorage.sol\";\nimport \"@openzeppelin/contracts/security/ReentrancyGuard.sol\";\nimport \"./IMintNft.sol\";\n\ncontract Stake is ReentrancyGuard {\n\n    struct EachStaker {\n        address nftOwner;\n        bool didEnd;\n        uint256 tokenId;\n        uint256 endTime;\n        uint256 fullStaked;\n    }\n\n    IMintNft collectionContract;\n    address collectionAddress;\n    uint256[3] public times;\n    mapping(uint256 => EachStaker) public Stakers;\n    \n\n    constructor(address _mintNft) {\n        collectionAddress = _mintNft;\n        times = [7884000, 15768000, 31536000];\n    }\n\n    function stake(\n        uint256 _tokenId,\n        uint8 _selectTime\n    ) public  nonReentrant {\n        EachStaker storage currentItem = Stakers[_tokenId];\n        uint256 fullStakedTime = currentItem.fullStaked + times[_selectTime];\n        require(fullStakedTime <= 31536000 , \"FullStaked\");\n        uint256 endTime = block.timestamp + times[_selectTime];        \n        ERC721(collectionAddress).stakeTransferFrom(\n            msg.sender,\n            address(this),\n            _tokenId\n        );\n\n        collectionContract = IMintNft(collectionAddress);\n        collectionContract.stake(_tokenId , endTime); \n\n        \n        EachStaker memory newStake = EachStaker(\n            msg.sender,\n            false,\n            _tokenId,\n            endTime,\n            fullStakedTime\n        );\n        Stakers[_tokenId] = newStake;\n    }\n\n    function unStake(uint256 _tokenId) public nonReentrant {\n        EachStaker storage currentItem = Stakers[_tokenId];\n        address nftOwner = currentItem.nftOwner;\n        uint256 endTime = currentItem.endTime;\n        uint256 _now = block.timestamp;\n        require(_now >= endTime , \"You can unstake your nft at this time\");\n        require(nftOwner == msg.sender, \"You are not the owner of this nft\");\n\n        currentItem.nftOwner = address(0);\n        currentItem.didEnd = true;\n\n        collectionContract = IMintNft(collectionAddress);\n        collectionContract.unStake(_tokenId); \n\n        ERC721(collectionAddress).stakeTransferFrom(\n            address(this),\n            msg.sender,\n            _tokenId\n        );\n    }\n\n\n}",
  "sourcePath": "/Users/istore/Desktop/Blockchain Projects/Space six/Develop/SpaceSix_Contracts2/contracts/Stake.sol",
  "compiler": {
    "name": "solc",
    "version": "0.8.17+commit.8df45f5f.Emscripten.clang"
  },
  "schemaVersion": "3.4.3",
  "updatedAt": "2022-11-18T12:30:26.701Z",
  "networkType": "ethereum",
  "devdoc": {
    "kind": "dev",
    "methods": {},
    "version": 1
  },
  "userdoc": {
    "kind": "user",
    "methods": {},
    "version": 1
  }
}