{
  "contractName": "Stake",
  "abi": [
    {
      "inputs": [
        {
          "internalType": "address",
          "name": "_mintNft",
          "type": "address"
        }
      ],
      "stateMutability": "nonpayable",
      "type": "constructor"
    },
    {
      "inputs": [
        {
          "internalType": "uint256",
          "name": "",
          "type": "uint256"
        }
      ],
      "name": "Stakers",
      "outputs": [
        {
          "internalType": "address",
          "name": "nftOwner",
          "type": "address"
        },
        {
          "internalType": "bool",
          "name": "didEnd",
          "type": "bool"
        },
        {
          "internalType": "uint256",
          "name": "tokenId",
          "type": "uint256"
        },
        {
          "internalType": "uint256",
          "name": "endTime",
          "type": "uint256"
        }
      ],
      "stateMutability": "view",
      "type": "function",
      "constant": true
    },
    {
      "inputs": [
        {
          "internalType": "uint256",
          "name": "",
          "type": "uint256"
        }
      ],
      "name": "times",
      "outputs": [
        {
          "internalType": "uint256",
          "name": "",
          "type": "uint256"
        }
      ],
      "stateMutability": "view",
      "type": "function",
      "constant": true
    },
    {
      "inputs": [
        {
          "internalType": "uint256",
          "name": "_tokenId",
          "type": "uint256"
        },
        {
          "internalType": "uint8",
          "name": "_selectTime",
          "type": "uint8"
        }
      ],
      "name": "stake",
      "outputs": [],
      "stateMutability": "nonpayable",
      "type": "function"
    },
    {
      "inputs": [
        {
          "internalType": "uint256",
          "name": "_tokenId",
          "type": "uint256"
        }
      ],
      "name": "unStake",
      "outputs": [],
      "stateMutability": "nonpayable",
      "type": "function"
    }
  ],
  "bytecode": "0x60806040523480156200001157600080fd5b5060405162000d9038038062000d908339818101604052810190620000379190620001a7565b600160008190555080600260006101000a81548173ffffffffffffffffffffffffffffffffffffffff021916908373ffffffffffffffffffffffffffffffffffffffff160217905550604051806060016040528062784ce063ffffffff16815260200162f099c063ffffffff1681526020016301e1338063ffffffff168152506003906003620000c9929190620000d1565b5050620001d9565b82600381019282156200010b579160200282015b828111156200010a578251829063ffffffff16905591602001919060010190620000e5565b5b5090506200011a91906200011e565b5090565b5b80821115620001395760008160009055506001016200011f565b5090565b600080fd5b600073ffffffffffffffffffffffffffffffffffffffff82169050919050565b60006200016f8262000142565b9050919050565b620001818162000162565b81146200018d57600080fd5b50565b600081519050620001a18162000176565b92915050565b600060208284031215620001c057620001bf6200013d565b5b6000620001d08482850162000190565b91505092915050565b610ba780620001e96000396000f3fe608060405234801561001057600080fd5b506004361061004c5760003560e01c806310087fb11461005157806320982bce1461006d5780635d3eea911461009d5780638c2f6887146100b9575b600080fd5b61006b600480360381019061006691906107d5565b6100ec565b005b61008760048036038101906100829190610815565b6103ac565b6040516100949190610851565b60405180910390f35b6100b760048036038101906100b29190610815565b6103c7565b005b6100d360048036038101906100ce9190610815565b610704565b6040516100e394939291906108c8565b60405180910390f35b600260005403610131576040517f08c379a00000000000000000000000000000000000000000000000000000000081526004016101289061096a565b60405180910390fd5b6002600081905550600061012c4261014991906109b9565b9050600260009054906101000a900473ffffffffffffffffffffffffffffffffffffffff16600160006101000a81548173ffffffffffffffffffffffffffffffffffffffff021916908373ffffffffffffffffffffffffffffffffffffffff160217905550600160009054906101000a900473ffffffffffffffffffffffffffffffffffffffff1673ffffffffffffffffffffffffffffffffffffffff16637b0472f084836040518363ffffffff1660e01b815260040161020b9291906109ed565b600060405180830381600087803b15801561022557600080fd5b505af1158015610239573d6000803e3d6000fd5b50505050600260009054906101000a900473ffffffffffffffffffffffffffffffffffffffff1673ffffffffffffffffffffffffffffffffffffffff16638bafd9353330866040518463ffffffff1660e01b815260040161029c93929190610a16565b600060405180830381600087803b1580156102b657600080fd5b505af11580156102ca573d6000803e3d6000fd5b50505050600060405180608001604052803373ffffffffffffffffffffffffffffffffffffffff168152602001600015158152602001858152602001838152509050806006600086815260200190815260200160002060008201518160000160006101000a81548173ffffffffffffffffffffffffffffffffffffffff021916908373ffffffffffffffffffffffffffffffffffffffff16021790555060208201518160000160146101000a81548160ff0219169083151502179055506040820151816001015560608201518160020155905050505060016000819055505050565b600381600381106103bc57600080fd5b016000915090505481565b60026000540361040c576040517f08c379a00000000000000000000000000000000000000000000000000000000081526004016104039061096a565b60405180910390fd5b6002600081905550600060066000838152602001908152602001600020905060008160000160009054906101000a900473ffffffffffffffffffffffffffffffffffffffff1690506000826002015490506000429050818110156104a5576040517f08c379a000000000000000000000000000000000000000000000000000000000815260040161049c90610abf565b60405180910390fd5b3373ffffffffffffffffffffffffffffffffffffffff168373ffffffffffffffffffffffffffffffffffffffff1614610513576040517f08c379a000000000000000000000000000000000000000000000000000000000815260040161050a90610b51565b60405180910390fd5b60008460000160006101000a81548173ffffffffffffffffffffffffffffffffffffffff021916908373ffffffffffffffffffffffffffffffffffffffff16021790555060018460000160146101000a81548160ff021916908315150217905550600260009054906101000a900473ffffffffffffffffffffffffffffffffffffffff16600160006101000a81548173ffffffffffffffffffffffffffffffffffffffff021916908373ffffffffffffffffffffffffffffffffffffffff160217905550600160009054906101000a900473ffffffffffffffffffffffffffffffffffffffff1673ffffffffffffffffffffffffffffffffffffffff16635d3eea91866040518263ffffffff1660e01b81526004016106329190610851565b600060405180830381600087803b15801561064c57600080fd5b505af1158015610660573d6000803e3d6000fd5b50505050600260009054906101000a900473ffffffffffffffffffffffffffffffffffffffff1673ffffffffffffffffffffffffffffffffffffffff16638bafd9353033886040518463ffffffff1660e01b81526004016106c393929190610a16565b600060405180830381600087803b1580156106dd57600080fd5b505af11580156106f1573d6000803e3d6000fd5b5050505050505050600160008190555050565b60066020528060005260406000206000915090508060000160009054906101000a900473ffffffffffffffffffffffffffffffffffffffff16908060000160149054906101000a900460ff16908060010154908060020154905084565b600080fd5b6000819050919050565b61077981610766565b811461078457600080fd5b50565b60008135905061079681610770565b92915050565b600060ff82169050919050565b6107b28161079c565b81146107bd57600080fd5b50565b6000813590506107cf816107a9565b92915050565b600080604083850312156107ec576107eb610761565b5b60006107fa85828601610787565b925050602061080b858286016107c0565b9150509250929050565b60006020828403121561082b5761082a610761565b5b600061083984828501610787565b91505092915050565b61084b81610766565b82525050565b60006020820190506108666000830184610842565b92915050565b600073ffffffffffffffffffffffffffffffffffffffff82169050919050565b60006108978261086c565b9050919050565b6108a78161088c565b82525050565b60008115159050919050565b6108c2816108ad565b82525050565b60006080820190506108dd600083018761089e565b6108ea60208301866108b9565b6108f76040830185610842565b6109046060830184610842565b95945050505050565b600082825260208201905092915050565b7f5265656e7472616e637947756172643a207265656e7472616e742063616c6c00600082015250565b6000610954601f8361090d565b915061095f8261091e565b602082019050919050565b6000602082019050818103600083015261098381610947565b9050919050565b7f4e487b7100000000000000000000000000000000000000000000000000000000600052601160045260246000fd5b60006109c482610766565b91506109cf83610766565b92508282019050808211156109e7576109e661098a565b5b92915050565b6000604082019050610a026000830185610842565b610a0f6020830184610842565b9392505050565b6000606082019050610a2b600083018661089e565b610a38602083018561089e565b610a456040830184610842565b949350505050565b7f596f752063616e20756e7374616b6520796f7572206e6674206174207468697360008201527f2074696d65000000000000000000000000000000000000000000000000000000602082015250565b6000610aa960258361090d565b9150610ab482610a4d565b604082019050919050565b60006020820190508181036000830152610ad881610a9c565b9050919050565b7f596f7520617265206e6f7420746865206f776e6572206f662074686973206e6660008201527f7400000000000000000000000000000000000000000000000000000000000000602082015250565b6000610b3b60218361090d565b9150610b4682610adf565b604082019050919050565b60006020820190508181036000830152610b6a81610b2e565b905091905056fea2646970667358221220a6cb4d95fc8f2d708135e4c7d7579ae66e037ffb147f6a0f25eff610a089d5fd64736f6c63430008110033",
  "immutableReferences": {},
  "source": "// SPDX-License-Identifier: MIT\npragma solidity ^0.8.0;\n\nimport \"@openzeppelin/contracts/token/ERC721/extensions/ERC721URIStorage.sol\";\nimport \"@openzeppelin/contracts/security/ReentrancyGuard.sol\";\nimport \"./IMintNft.sol\";\n\ncontract Stake is ReentrancyGuard {\n\n    struct EachStaker {\n        address nftOwner;\n        bool didEnd;\n        uint256 tokenId;\n        uint256 endTime;\n        // uint256 totalStaked;\n    }\n\n    IMintNft collectionContract;\n    address collectionAddress;\n    uint256[3] public times;\n    mapping(uint256 => EachStaker) public Stakers;\n    \n\n    constructor(address _mintNft) {\n        collectionAddress = _mintNft;\n        times = [7884000, 15768000, 31536000];\n    }\n\n    function stake(\n        uint256 _tokenId,\n        uint8 _selectTime\n    ) public  nonReentrant {\n        // uint256 endTime = block.timestamp + times[_selectTime]; \n        uint256 endTime = block.timestamp + 300;       \n        collectionContract = IMintNft(collectionAddress);\n        collectionContract.stake(_tokenId , endTime); \n\n        ERC721(collectionAddress).stakeTransferFrom(\n            msg.sender,\n            address(this),\n            _tokenId\n        );\n        EachStaker memory newStake = EachStaker(\n            msg.sender,\n            false,\n            _tokenId,\n            endTime\n        );\n        Stakers[_tokenId] = newStake;\n    }\n\n    function unStake(uint256 _tokenId) public nonReentrant {\n        EachStaker storage currentItem = Stakers[_tokenId];\n        address nftOwner = currentItem.nftOwner;\n        uint256 endTime = currentItem.endTime;\n        uint256 _now = block.timestamp;\n        require(_now >= endTime , \"You can unstake your nft at this time\");\n        require(nftOwner == msg.sender, \"You are not the owner of this nft\");\n\n        currentItem.nftOwner = address(0);\n        currentItem.didEnd = true;\n\n        collectionContract = IMintNft(collectionAddress);\n        collectionContract.unStake(_tokenId); \n\n        ERC721(collectionAddress).stakeTransferFrom(\n            address(this),\n            msg.sender,\n            _tokenId\n        );\n    }\n\n\n}",
  "sourcePath": "/Users/istore/Desktop/Blockchain Projects/Space six/Develop/SpaceSix_Contracts2/contracts/Stake.sol",
  "compiler": {
    "name": "solc",
    "version": "0.8.17+commit.8df45f5f.Emscripten.clang"
  },
  "schemaVersion": "3.4.3",
  "updatedAt": "2022-11-17T11:42:18.340Z",
  "networkType": "ethereum",
  "devdoc": {
    "kind": "dev",
    "methods": {},
    "version": 1
  },
  "userdoc": {
    "kind": "user",
    "methods": {},
    "version": 1
  }
}